:020000040000fa
:020000041000ea
:10000000f8ff0b21d90c00108b120010f314001014
:100010003b1e00104b1f00100f20001000000000be
:100020000000000000000000000000006b11001044
:10003000df190010000000006b1100106b110010a0
:100040006b1100106b1100106b1100106b11001080
:100050006b1100106b1100106b1100106b11001070
:100060006b1100106b1100106b1100106b11001060
:10007000c11500106b1100106b1100106b110010f6
:100080006b1100106b1100106b1100106b11001040
:100090006b1100106b1100106b1100106b11001030
:1000a0006b1100106b1100106b1100106b11001020
:1000b0006b1100106b1100106b1100106b11001010
:1000c0006b1100106b1100106b1100106b11001000
:1000d0006b1100106b1100106b1100106b110010f0
:1000e0006b1100106b1100106b1100106b110010e0
:1000f0006b1100106b1100106b1100106b110010d0
:10010000000000006b1100106b1100106b1100104b
:100110006b1100106b1100106b1100106b110010af
:100120006b1100106b1100106b1100106b1100109f
:100130006b1100106b1100106b1100106b1100108f
:100140006b1100106b110010000000000000000097
:100150006b1100106b1100106b1100106b1100106f
:0c0160006b1100106b1100106b110010ef
:020000040000fa
:020000041000ea
:10016c00f8b500bff8bc08bc9e467047791b001060
:10017c00f8b500bff8bc08bc9e467047551b001074
:020000040000fa
:020000041000ea
:10018c002de9f043904b0022c3f88420bff34f8f2e
:10019c005a6922f480325a61bff34f8fd3f8803002
:1001ac00c3f3c904c3f34e334fea431c43f6e07e5a
:1001bc0085480cea0e01234641ea8372c0f874228a
:1001cc00013bb3f1ff3ff7d1acf1200c1cf1200f38
:1001dc00efd1bff34f8fbff36f8fbff34f8fbff3d1
:1001ec006f8f794b5a6922f400325a610022c3f89e
:1001fc005022bff34f8fbff36f8f744b4ff02542dc
:10020c001a61734a116a734b0b431362936e13f4a6
:10021c00003ffbd04ff040236f4a5a60bff34f8f23
:10022c00bff36f8f1a46936813f0010ffbd04ff09a
:10023c004022d168694b1960d1685960d1689960c6
:10024c00d268da60bff34f8fbff36f8f5a689b6829
:10025c009a4200f0d780624b1b78002b40f0db8079
:10026c005b490b6a5f4a1a405f4b13430b620a46a9
:10027c00936e13f4003ffbd0554a116a5b4b0b4055
:10028c0043f45c131362936e13f0080ffbd0504ac7
:10029c00d2f8b011564b0b43c2f8b031504b1b780f
:1002ac00002b40f03d814a4bd3f8b011514a0a4320
:1002bc00c3f8b02143f20302c3f880204e4a9a627d
:1002cc001a46936e13f0020ffbd0414b4b4ada6285
:1002dc001a46936e13f0040ffbd03d4a136b23f0b8
:1002ec0070031363936e13f0080ffbd0384a136b33
:1002fc0043f480731363936e13f0080ffbd0344aee
:10030c00136b23f0030343f002031363936e13f098
:10031c00080ffbd02e4b3a4ac3f80c210232c3f81b
:10032c000c2102f1005202f23a32c3f80c21264b96
:10033c005b6913f4803f2bd1234b0022c3f884203c
:10034c00bff34f8fd3f88030c3f3c90ec3f34e33d2
:10035c004fea431c43f6e0741b480cea0401734655
:10036c0041ea8372c0f86022013bb3f1ff3ff7d141
:10037c00acf1200c1cf1200fefd1bff34f8f124ac0
:10038c00536943f480335361bff34f8fbff36f8fc7
:10039c000d4b5b6913f4003f13d1bff34f8fbff3c9
:1003ac006f8f094b0022c3f85022bff34f8fbff35e
:1003bc006f8f5a6942f400325a61bff34f8fbff30b
:1003cc006f8fbde8f08300bf00ed00e0000210402d
:1003dc0000c00040080037000d00005a98040021ae
:1003ec00cc0400218fffc8ff20003700ffffc8fea0
:1003fc000100370030003700017f0920023f014027
:10040c0008100010874b9a68db689a427ff423af80
:10041c00854b01221a7083494868800800f01c0043
:10042c004c6804f003044e684b68760906f01c0611
:10043c0003f003031e434b684a681b0a03f01c03ba
:10044c0002f003021a434d684b68ed0a05f01c05d7
:10045c0003f003031d4375490f6a754b3b4043f48e
:10046c005c130b628b6e13f4003ffbd0bff34f8f0a
:10047c00bff36f8f6d49d1f810716e4b3b43c1f8d0
:10048c001031d1f8b0716c4b3b43c1f8b031d1f89d
:10049c001071130643ea0623684a3a40134343eab1
:1004ac000543c1f81031d1f8b021654b134043f42a
:1004bc005c13c1f8b031bff34f8fbff36f8f0b6a72
:1004cc005b4a1a405f4b13430b620a46936e13f45c
:1004dc00003ffbd0bff34f8fbff36f8f534bd3f85d
:1004ec00102142f08002c3f81021d3f8b011524a07
:1004fc000a43c3f8b021d3f8102122f07f02224323
:10050c000243c3f81021d3f8b0114d4a0a4042f40b
:10051c005c12c3f8b021bff34f8fbff36f8f9fe610
:10052c00404b586859685f68d3f804905a68d3f800
:10053c0004805c685d683d4bd3f8b061dff808e17e
:10054c0006ea0e0646f45c16c3f8b061bff34f8f93
:10055c00bff36f8fd3f8b4c1364e4cea0606c3f81e
:10056c00b461d3f8b061dff8d0c046ea0c06c3f82a
:10057c00b061d3f8b4617f0c07f01c07c9f3810993
:10058c0047ea0907120d02f01c02c8f3810842ea7f
:10059c000802120642ea0722284f37403a43e40d7c
:1005ac0004f01c04c5f381052c4342ea0442c3f851
:1005bc00b421d3f8b021224c224042f45c12c3f88f
:1005cc00b021bff34f8fbff36f8fd3f8b05105ea53
:1005dc000e051c4a2a43c3f8b021bff34f8fbff35b
:1005ec006f8fd3f8b42142f08002c3f8b421d3f852
:1005fc00b02142ea0c02c3f8b021d3f8b451c1f3d4
:10060c00810225f07f010a43810b01f01c010a4392
:10061c00c3f8b421d3f8b021224042f45c12c3f8e1
:10062c00b02140e698040021cc04002100c0004019
:10063c008fffc8ff0080808000013700ff80808022
:0c064c00fffec8ff10003700cfffc8ff02
:020000040000fa
:020000041000ea
:100658007c0400211c00000000000000cc040021e4
:1006680001000000000000009804002110000000b4
:1006780000000000bc050021080000000100000087
:1006880000000003030303035804002124000000b2
:1006980000000000cd04002101000000000000005f
:1006a800bc04002104000000000000000804002130
:1006b8005000000000000000d00400216c00000081
:1006c80001000000dc040021d8040021dc04002122
:1006d80000000000250000000800002100040000c0
:1006e8000000000000000000000000000000000002
:1006f80000000000000000000000000000000000f2
:10070800a120001000000000000000000000000010
:10071800000000005d15001000000000000000004f
:1007280000000000000000000000000000000000c1
:100738000000002108040000000000009c050021c2
:10074800200000000100000001000000030000007c
:100758000000000000000000000000000000000091
:1007680000000000b4040021b404002108000000c7
:1007780000000000c0040021080000000000000084
:100788003c0500216000000001000000010000009d
:10079800030000000000000000000000000000004e
:1007a80000000000000000003517001000000000e5
:1007b800000000000000000089200010af20001099
:1007c8000000000000000000000000000000000021
:1007d8000000000000000000000000000000000011
:1007e800000000000000000000000000c405002117
:1007f800040000000100000001000000c8040021fe
:100808000400000000000000a80400210c00000003
:1008180000000000000000006c0100000100000062
:10082800f8ff0b21d90c00108b120010f3140010e4
:100838003b1e00104b1f00100f200010000000008e
:100848000000000000000000000000006b11001014
:10085800df190010000000006b1100106b11001070
:100868006b1100106b1100106b1100106b11001050
:100878006b1100106b1100106b1100106b11001040
:100888006b1100106b1100106b1100106b11001030
:10089800c11500106b1100106b1100106b110010c6
:1008a8006b1100106b1100106b1100106b11001010
:1008b8006b1100106b1100106b1100106b11001000
:1008c8006b1100106b1100106b1100106b110010f0
:1008d8006b1100106b1100106b1100106b110010e0
:1008e8006b1100106b1100106b1100106b110010d0
:1008f8006b1100106b1100106b1100106b110010c0
:100908006b1100106b1100106b1100106b110010af
:100918006b1100106b1100106b1100106b1100109f
:10092800000000006b1100106b1100106b1100101b
:100938006b1100106b1100106b1100106b1100107f
:100948006b1100106b1100106b1100106b1100106f
:100958006b1100106b1100106b1100106b1100105f
:100968006b1100106b110010000000000000000067
:100978006b1100106b1100106b1100106b1100103f
:100988006b1100106b1100106b11001000000000bb
:100998000000000066666666666666666666666687
:020000040000fa
:020000041000ea
:1009a8002de9f047aeb00746164605914ff000080e
:1009b800059d2b78002b00f0e08000244ff0ff33da
:1009c800cde909430eab0c9380230b940d932b5d5b
:1009d8000bb1252b30d134b129462246384625445f
:1009e80001f0f3f80595059b1a78252a40f0bc809c
:1009f80003f10109cdf814904a46002113782b2bf6
:100a0800104602f1010223d02ed8202b24d0232b0c
:100a180026d001b105902a2b2ed001f073f8059a43
:100a28000b900020114601320b78303b092b79d905
:100a3800002830d005912ee00134c8e7099b43f027
:100a4800010309930121d9e7099b43f00203f8e761
:100a5800099b43f00403f4e7099b43f00803f0e71c
:100a6800099b43f01003ece72d2be7d0302bebd09c
:100a78000029d2d00590d0e733681a1d1b68326070
:100a88000130002b05900b9305da099a5b4282f03e
:100a9800010209920b93099bda0744bf23f0020372
:100aa8000993059b1a782e2a0fd14ff0000acdf82a
:100ab80028a05a785d1c2a2a059535d1023305935a
:100ac80033681a1d1b6832600a9305a801f0b8f84c
:100ad800059d0390287801f0b7fa2528039900f0be
:100ae800da806138172800f2e080172800f2dd80ec
:100af800dfe810f02b00db00b6004700a700a700d6
:100b0800a700db004700db00db00db00db009e000a
:100b180065008300db00db00c700db005600db005c
:100b2800db00740001207de7284600f0ebff534608
:100b38000a90294601350a78303a092a03d9002b48
:100b4800c3d00591c1e70123f3e7324606a801f0b7
:100b5800f6f8002872d06b1c059306aa2b7809a911
:100b6800384601f097fa04444444a04540f3a7806e
:100b7800544b4f221a604ff0ff3840462eb0bde864
:100b8800f0873346012206a800f089fa002855d0dc
:100b9800013506aa09a93846059501f079fae2e770
:100ba8003346002206a800f07afa002846d001351c
:100bb80006aa09a93846059501f06afad3e733462b
:100bc800002206a800f06bfa002837d0013506aae3
:100bd80009a93846059501f05bfac4e733460022b7
:100be80006a800f05cfa48b36b1c05932b7806aa9c
:100bf80009a9384601f04efab5e733460022f0213c
:100c080006a800f04cfac8b1dde9063201351343f5
:100c180005950bd12c4801f0a1f9099b00932a49ad
:100c28000b9b0246384600f0affb9ce77823dee7d3
:100c3800334608eb040206a800f01ffc01350595b1
:100c480092e7324606a801f07af80028f6d06b1c25
:100c5800059306aa2b7809a9384601f01bfa82e702
:100c68008029ebd1336801351a1d1b6832608df875
:100c780018300595012306aa09a9384600f0defdbb
:100c880071e78029dad13268131d336001351268a3
:100c980005950023f0e78029d0d1099b0093013501
:100ca8000b9b059509490122bce700234ff0ff3251
:100cb800cdf8149009930b930a920093f2e7a0469b
:100cc80076e600bfc4040021472000104d20001024
:020000040000fa
:020000041000ea
:100cd80008b5a84b9847a84b9847eff3108172b610
:100ce800a64ad2f8883043f47003c2f88830bff3bc
:100cf8004f8fbff36f8f01b962b6bff34f8fbff34a
:100d08006f8f9f4b00221a60bff34f8fbff36f8f17
:100d18009a4b0122c3f89022c3f89422bff34f8f55
:100d2800bff36f8f5b6913f4003f13d1bff34f8f8d
:100d3800bff36f8f914b0022c3f85022bff34f8f40
:100d4800bff36f8f5a6942f400325a61bff34f8f75
:100d5800bff36f8f894b5b6913f4803f2bd1874baf
:100d68000022c3f88420bff34f8fd3f88030c3f339
:100d7800c90ec3f34e334fea431c43f6e0747f4871
:100d88000cea0401734641ea8372c0f86022013b11
:100d9800b3f1ff3ff7d1acf1200c1cf1200fefd1dc
:100da800bff34f8f754a536943f480335361bff3e0
:100db8004f8fbff36f8f4ff40031002000f0bcfd60
:100dc8004ff480214ff0005000f0b6fdbff34f8f75
:100dd800bff36f8f694b5a6922f400325a610022bf
:100de800c3f85022bff34f8fbff36f8fc3f884202f
:100df800bff34f8f5a6922f480325a61bff34f8f85
:100e0800d3f88030c3f3c904c3f34e334fea431c0d
:100e180043f6e07e59480cea0e01234641ea837204
:100e2800c0f87422013bb3f1ff3ff7d1acf1200cbd
:100e38001cf1200fefd1bff34f8fbff36f8fbff3bc
:100e48004f8fbff36f8f4e4b00221a604b4a07211a
:100e5800c2f89012c2f89412bff34f8fbff36f8f8e
:100e680001221a60bff34f8fbff36f8fbff34f8f0d
:100e7800bff36f8f4ff00453424a984698f8c0f07a
:100e880098ec200bbff34f8fbff36f8f984688ec19
:100e9800200bbff34f8fbff36f8f80339342ecd19a
:100ea800bff34f8fbff36f8fbff34f8fbff36f8fba
:100eb800324c0723c4f89032c4f89432bff34f8ff2
:100ec800bff36f8f00f0f2fe2f4b23f07f03a36078
:100ed8002e4b9847636913f4003f12d1bff34f8f2d
:100ee800bff36f8f0022c4f85022bff34f8fbff3b8
:100ef8006f8f626942f400326261bff34f8fbff3b4
:100f08006f8f1e4b5b6913f4803f2bd11b4b002264
:100f1800c3f88420bff34f8fd3f88030c3f3c90ed2
:100f2800c3f34e334fea431c43f6e07413480cea0c
:100f38000401734641ea8372c0f86022013bb3f1b1
:100f4800ff3ff7d1acf1200c1cf1200fefd1bff31c
:100f58004f8f0a4a536943f480335361bff34f8f6d
:100f6800bff36f8f0a4b98470a4b984700f082fbf4
:100f7800fee700bf5f2000105f20001000ed00e0da
:100f88000004104000000c2100000000d9160010d9
:080f98005f2000105f20001033
:020000040000fa
:020000041000ea
:100fa0000d0a3d3d3d3d3d3d3d3d3d3d3d3d3d3dd4
:100fb0003d3d3d3d3d3d3d3d3d3d3d3d3d3d3d3d61
:100fc0003d3d3d3d3d3d3d3d3d3d0d0020205341de
:100fd0004d52483731204556204b697420697320a3
:100fe000506f77657265640d000000002020566523
:100ff0007273696f6e3a20302e312e300d00000072
:1010000031383a32363a31360000000041707220f1
:10101000313520323032360020204275696c642030
:10102000446174653a2025732025730d0a00000081
:101030003d3d3d3d3d3d3d3d3d3d3d3d3d3d3d3de0
:101040003d3d3d3d3d3d3d3d3d3d3d3d3d3d3d3dd0
:101050003d3d3d3d3d3d3d3d0d00000020204e6f9e
:10106000726d616c204d6f646520697320737769c0
:1010700074636865640d000020204d6f6465203145
:101080002069732073776974636865640d000000dc
:1010900020204d6f64652032206973207377697456
:0610a000636865640d00a9
:020000040000fa
:020000041000ea
:1010a600902910b50fdc7f2913dd8039102910d85f
:1010b600dfe801f02b2b360f110f0f0f200f0f0f4c
:1010c6000f0f0f0f3600c02944d0f02942d0a029b7
:1010d60021d000200de019682ab10a1d1a60b1f965
:1010e6000030da1702e00c1d1c600b88c0e90032e4
:1010f600012010bd196822b10a1d1a6091f900304d
:10110600efe70c1d1c600b78f0e71968f2b10a1db9
:101116001a600b68e5e71a68111d19601368e0e7a5
:10112600196852b1073121f0070101f108021a606e
:10113600d1e90023c0e90023dae7ca1d22f007023d
:1011460002f108011960d2e90023f3e70c1d1c60c7
:101156000b68cbe71a68111d19601368036000233a
:041166004360c5e736
:020000040000fa
:020000041000ea
:02116a00fee79e
:020000040000fa
:020000041000ea
:10116c0010b4204b4ff06044c3f880400021c3f80a
:10117c0084104ff00052c3f88020d3f8842002f082
:10118c00070219480243c3f884204ff08042c3f889
:10119c008020d3f8842002f007020243c3f8842095
:1011ac004ff00042c3f88020d3f8842002f00702ed
:1011bc000243c3f88420c3f89440d3f8ac300b4bf3
:1011cc004ff0c0421a6401225a64094b5d221a7016
:1011dc005e221a735f221a7659601961d9615df823
:1011ec00044b704700800040000400010081004067
:0411fc005804002172
:020000040000fa
:020000041000ea
:101200002de9ff41836947690093ff1acde9017118
:1012100004461646039217444ff002086d462068b4
:101220004246294600f0b9fdb84209d1d4e902325c
:10123000c4e905331a44a262304604b0bde8f08127
:1012400000280dda6268002342f01002b8f1020fa4
:10125000c4e90533a362626015d06b68f61aebe748
:101260006b68984288bf0835a7eb000788bfc01a93
:101270002b6803442b606b68a3eb000388bf08f165
:0a128000ff386b60cbe71e46d6e78f
:020000040000fa
:020000041000ea
:02128a00fee77d
:020000040000fa
:020000041000ea
:10128c00dff87cc0f0b5dcf800400346002c35d00c
:10129c000022214615461046d1f800e00e699e4505
:1012ac0009d12ab1166101f11000f0bd3146f3e706
:1012bc00ccf80060f7e705d9e8b10768be453cbf3c
:1012cc00154608460a46002ef0d10028edd00146fe
:1012dc00066951f8102bd21a102a05d903600b4459
:1012ec00103a1e611a601e4684420cbfccf8006096
:1012fc002e610846d9e715460846e3e72046d4e7b1
:04130c00c8040021f0
:020000040000fa
:020000041000ea
:1013100008b5144800f056fd134800f053fd13487b
:1013200000f050fd124a1349134800f087fd13489e
:1013300000f048fd124b1b78dbb2022b0ad0032bc6
:101340000cd0012b02d10f4800f03cfd0b4800f0ff
:1013500039fd08bd0c4800f035fdf7e70b4800f0fb
:1013600031fdf3e7a00f0010cc0f0010ec0f0010c0
:10137000001000100c100010181000103010001099
:10138000cd0400215c1000107810001090100010a7
:020000040000fa
:020000041000ea
:101390002de9ff471d460c9b13f0010806460f463a
:1013a000144601d195420bd822463946304600f00a
:1013b00010fca54204d82546284604b0bde8f087b5
:1013c000a5eb04094a46102a28bf102220216846ae
:1013d000ca4600f009fe00bfbaf10f0f0ed809f09f
:1013e0000f026946304600f0f4fbb8f1000fe3d17c
:1013f00022463946304600f0ecfbdde71022694614
:0c140000304600f0e6fbaaf1100ae5e718
:020000040000fa
:020000041000ea
:10140c00f8b5846a05460f46164654b1ab6a6a694c
:10141c009b1ab3420bd2324639462846fff7eafef6
:10142c00f8bd00f074fd0028f0d02046f8e7002e3f
:10143c00f1d095f93430002b1bdbdab233461c4665
:10144c00013bf95c914212d1224639462846fff7fe
:10145c00d1fe8442e4d82744341b686922463946bd
:10146c0000f06efd6b6923446b613046d8e7002bae
:06147c00e5d13446f1e762
:020000040000fa
:020000041000ea
:10148200902910b50fdc7f2911dd803910290ed883
:10149200dfe801f00f0f250d170d0d0d1e0d0d0dbf
:1014a2000d0d0d0d2500a02903d0c02901d000206b
:1014b20006e019680c1d1c600b6803601a600120ad
:1014c20010bd19680c1d1c600b6803601a80f6e7da
:1014d20019680c1d1c600b6803601a70efe719682d
:1014e2000c1d1c600b680360d117c3e90021e6e7fd
:020000040000fa
:020000041000ea
:0214f200fee713
:020000040000fa
:020000041000ea
:1014f40058b338b50c46054600f070fa1cb300200a
:10150400134a144904e00b7e2b540130844214d056
:10151400d2f8143213f0010ffad0d2f8143213f0c7
:10152400e00f0bd1d2f8043213f4003febd00b8b55
:10153400c3f3080325f81030e7e72046844214bfbc
:101544000020012038bd2046f8e70020704700bf86
:0815540000400140004201408b
:020000040000fa
:020000041000ea
:10155c007fb5c36800911646002b18bf013a019263
:10156c0082680446cde9022300680d4602226946d2
:10157c0000f0f8fb031e09dc626803f0180181f02f
:10158c0008010a436260184604b070bd0199994283
:10159c001846f9d2a268e2635b1a13442364e36829
:1015ac000bb93046f0e7531ce3633544137805f868
:0415bc00013cf6e711
:020000040000fa
:020000041000ea
:1015c00070b5154bd3f8ac60d3f8a8301e4000249a
:1015d000124d02e00134032c1cd004eb440305eb54
:1015e000830015f82330dbb2816840680028f1d011
:1015f00003f01f0326fa03f313f0010fead004eb04
:10160000440305eb83035b6804eb440215f82200f6
:101610009847dfe770bd00bf0080004058040021fc
:020000040000fa
:020000041000ea
:1016200070b54609134ca35ddbb20136a45de4b28c
:10163000a3421dd2104c0f4d03eb430c14f82cc0e9
:101640005ffa8cfc84450ad015f806c05ffa8cfc62
:1016500001335ffa83fef445eed8002007e0064828
:1016600003eb430400eb84046160a260012070bdc1
:0c1670000020fce7bc050021580400210c
:020000040000fa
:020000041000ea
:10167c0008b5002000f036f9124c002221465d20fe
:10168c00fff7c8ff002221465e20fff7c3ff0022b0
:10169c0021465f20fff7beff4ff00051022000f003
:1016ac00d9fc4ff08041022000f0d4fc4ff00041f7
:1016bc00022000f0cffc044a1378002bfcd0fff77b
:0c16cc0021fefee7c51a0010cd0400212d
:020000040000fa
:020000041000ea
:1016d8000e4a38b5002313600d4a0e4c13600e4aab
:1016e8000e4d13600e4a13600e4a13600e4a536281
:1016f80013610123936000f097fc00f0d2fcac4228
:1017080000d338bd54f8043b9847f8e7c0040021db
:101718001404002178010010100400217c0100103d
:0c172800080400210c040021180400211a
:020000040000fa
:020000041000ea
:1017340038b50d46044608b9002038bd43689b06f9
:1017440007d5d0e905239a4216d80023c4e9053306
:10175400a362d4e90f13994204d220680122c91a62
:1017640000f09efc0023c4e90f33002de4d0206870
:10177400bde8384000f089bc0022c36a114698478e
:0c1784006369002be1d14ff0ff30d6e785
:020000040000fa
:020000041000ea
:1017900037b5144d2b68044673b100f083fb0190fc
:1017a00001a800f002fc0f30019920f00f0000f0ba
:1017b000e5fb58b100232b60012c38bf01240f3406
:1017c00034f00f0405d1084b0c221a60002003b03e
:1017d00030bd2046fff75afd0028f8d040f8044cf1
:0c17e000f5e700bfc4050021c40400218f
:020000040000fa
:020000041000ea
:1017ec0008b30b46014603b310b400eb030c104acc
:1017fc00104c05e00b7823770230013161450ed097
:10180c00d2f8143213f0020ffad0d2f8043213f4d7
:10181c00003fefd00388c3f30803a383ece7012058
:10182c005df8044b7047002070470120704700bfe3
:08183c000040014000420140a0
:020000040000fa
:020000041000ea
:101844002de9ff41134ed1f80080b788adf80c7034
:1018540005463068029002acb0798df80e00002a7b
:1018640018bf1446d1e901671a461bb9204600f097
:1018740077fb0246002e02dbb24228bf3246cdf887
:1018840000803b4621462846fff780fd04b0bde8b2
:08189400f08100bf40200010ac
:020000040000fa
:020000041000ea
:10189c00114bd96821f4e0610904090c0f4a0a4381
:1018ac00da60bff35f8f62b60d4ae02182f80c1349
:1018bc004ff4805111605a6a42f480225a625a697c
:1018cc0042f010025a615a6a42f400325a625a6a61
:1018dc0042f480325a62704700ed00e00000fa05d5
:0418ec0000e100e037
:020000040000fa
:020000041000ea
:1018f00008b5104b1b680021186800f091fb0e4bd7
:101900001b680021186800f08bfbfef73ffcfff717
:101910002dfc00f001fa4ff40043084a5360a2f591
:101920008072536500f074fb00f0aaf9fff7b6ff70
:1019300008bd00bfd4040021b805002100031040f9
:020000040000fa
:020000041000ea
:101940000144884220d22de91001104b00240122cd
:101950001c60bff34f8fbff36f8f804698f8c0f0c5
:1019600098ec200b1a60bff34f8fbff36f8f804648
:1019700088ec200bbff34f8fbff36f8f803088420e
:10198000e6d3bde810017047704700bf0004104067
:020000040000fa
:020000041000ea
:1019900013b5836a8df80710044673b16369a26ab0
:1019a000934212d3e36a01220df1070120469847c2
:1019b000012806d19df8070005e000f0aefa0028e6
:1019c000ecd04ff0ff3002b010bd9df8070094f945
:0e19d00034209042e6d05a1c62611870f3e792
:020000040000fa
:020000041000ea
:0219de00fee722
:020000040000fa
:020000041000ea
:1019e000104bd3f8143213f0e00f19d00d4b4ff415
:1019f0008072c3f80022d3f8143213f0010f0fd015
:101a0000084b094905e00a7ed3f8142212f0010fb1
:101a100006d0d3f8042212f4003ff4d00a8bf3e787
:0c1a2000704700bf004001400042014040
:020000040000fa
:020000041000ea
:101a2c00022a70b5044616461d461bd043689b0619
:101a3c0018d441b9002d08bf4ff4806505f108009a
:101a4c00fff7a0fe01466368012e43f0200363609c
:101a5c00c4e9021514bf4ff0ff330a2384f8343065
:0c1a6c00014be362002070bd0d1400105f
:020000040000fa
:020000041000ea
:101a780038b50f4d2b68044663b1002c12da0d4ab5
:101a88002b6812689b1a6242934208db2868044458
:101a98002c6006e000f024f92b68002bedd14ff004
:101aa800ff3038bd044b2a681b689b1aa342ece739
:0c1ab800a8040021b0040021ac040021af
:020000040000fa
:020000041000ea
:101ac40008b55e2816d05f2818d05d2802d10d4bca
:101ad40001221a704ff00051022000f0c5fa4ff0b5
:101ae4008041022000f0c0fa4ff00041022000f0d3
:101af400bbfa08bd034b02221a70ebe7014b032229
:081b04001a70e7e7cd0400218f
:020000040000fa
:020000041000ea
:101b0c000278202a034600f10100f9d0a2f1090164
:101b1c000429f5d92b2a06d02d2a13d10121013302
:101b2c00013b002006e00021f9e700bf00eb80003c
:101b3c00c2eb400013f8012f303a092af6d901b94b
:081b4c00404270470021ebe765
:020000040000fa
:020000041000ea
:101b540010b5054c237833b9044b13b10448aff3e3
:101b640000800123237010bd7c04002100000000cc
:101b74000000000008b5034b1bb103490348aff351
:101b8400008008bd00000000800400210000000067
:020000040000fa
:020000041000ea
:101b940010b44c68a40602460b4603d45df8044b0b
:101ba40000f033b891f93410c0b2814203d05969be
:101bb4009c6aa14205d35df8044b11461846fff711
:0e1bc400e5be4c1c5c610a705df8044b704776
:020000040000fa
:020000041000ea
:101bd20038b5436813f4807f0446154611d0036973
:101be2009a4228bf1d465db12a46406900f0adf910
:101bf200636922692b44521b2261002263611a70bd
:0c1c020038bddb06fcd400f093f9f9e7d4
:020000040000fa
:020000041000ea
:101c0e0007b54a680346dbb2d20508468df80730a1
:101c1e0007d54a69511c41611370184603b05df82f
:101c2e0004fb01220df1070100f07cf910b19df8c3
:0a1c3e000700f3e74ff0ff30f0e776
:020000040000fa
:020000041000ea
:101c480030b50c4a0146002012f810301bb902ebdf
:101c58004002507830bd0c6825789d4209bf02ebe0
:101c68004003431c5878013414bfd8b20c600a28ca
:081c7800ead9efe7941f001008
:020000040000fa
:020000041000ea
:101c80000a4b01221a604ff48672c3f80022002228
:101c9000c3f828224ff40c62c3f80422044ac3f8a4
:101ca00020225022c3f80022704700bf00400140ac
:041cb0001b00010014
:020000040000fa
:020000041000ea
:101cb40038b50a480a4d016821b9436813b900f0e0
:101cc400f1f938bd0389426855f8233000f10c045a
:101cd4002046984704eb8000ede700bf580600104b
:041ce400c01f00100d
:020000040000fa
:020000041000ea
:101ce800064b1a680ab9064a1a60064a116809b901
:101cf800054911601a68054b1a607047b004002145
:101d0800d0050021ac040021d0070021a80400213f
:020000040000fa
:020000041000ea
:101d18004ff0804340f6ff71c3f840124ff007328e
:101d2800c3f80022c3f84412c3f80422c3f81822e7
:0e1d3800c3f85812c3f85c12c3f81c2270479f
:020000040000fa
:020000041000ea
:101d4600812903dc7f2903dc002070478329fbd12e
:101d56001368073323f0070303f108011160d3e981
:0a1d66000023c0e9002301207047ac
:020000040000fa
:020000041000ea
:101d70002de9f0410025804616460c462f46b74215
:101d800002db2846bde8f081626854f8081b404633
:0a1d900000f066f801370544f1e7a2
:020000040000fa
:020000041000ea
:101d9a002de9f0410025804616460c462f46b742eb
:101daa0002db2846bde8f081626854f8081b404609
:0a1dba0000f092f801370544f1e74c
:020000040000fa
:020000041000ea
:101dc40010b5084c2368196800f059f8002807db9f
:101dd40023680a20196800f04df9c00f404210bd75
:081de4000120fbe7b805002116
:020000040000fa
:020000041000ea
:101dec0090f948305a1e1343426880f8483012f07c
:101dfc00040317bf42f01002c0e90f3342604ff0ea
:081e0c00ff3008bf18467047c3
:020000040000fa
:020000041000ea
:101e140070b502fb01f6144600290d463246014610
:101e2400184608bf002400f082f8864218bfb0fbb1
:061e3400f5f4204670bd2c
:020000040000fa
:020000041000ea
:021e3a00fee7c1
:020000040000fa
:020000041000ea
:101e3c000fb407b5064b04aa1b6852f8041b1868ac
:101e4c00019200f056f803b05df804eb04b0704753
:041e5c00b8050021a4
:020000040000fa
:020000041000ea
:101e600068b938b50c4642b1012529462046fff72e
:101e700041fb0028f9d0012038bd0020fce70020fc
:021e80007047a9
:020000040000fa
:020000041000ea
:101e820070b50e46054600f06cf83346044602462d
:101e920001212846fff7bdff001b18bf4ff0ff309e
:021ea20070bd11
:020000040000fa
:020000041000ea
:101ea40010b5054c23680bb9fff71cff034b1868ea
:101eb4002368c01a10bd00bfa8040021ac0400218f
:020000040000fa
:020000041000ea
:101ec40010b50023934206d113f0030018bf01207c
:0e1ed40000eb930010bdc45ccc540133f2e768
:020000040000fa
:020000041000ea
:101ee20038b50d461446012801d0204638bd21469a
:0c1ef2002846fff77afc0028f9d0f6e73c
:020000040000fa
:020000041000ea
:101efe0013b50446019201aafef74ffd636813f075
:0c1f0e00100f18bf4ff0ff3002b010bde4
:020000040000fa
:020000041000ea
:101f1a0010b50446fff765ff28b9a368e268c4e96b
:081f2a0005331344a36210bd4e
:020000040000fa
:020000041000ea
:101f320010b4c46a1cb123465df8044b184700680c
:081f42005df8044bfff7ccbf72
:020000040000fa
:020000041000ea
:021f4a00fee7b0
:020000040000fa
:020000041000ea
:101f4c004ab1431e84460a4411f8010b03f8010ff1
:081f5c009142f9d16046704783
:020000040000fa
:020000041000ea
:101f640003783bb1034600bf13f8012f002afbd1cd
:081f7400181a70471846704767
:020000040000fa
:020000041000ea
:101f7c00044a136823b910600361016001207047a3
:081f8c0000207047c804002189
:020000040000fa
:020000041000ea
:101f940068076c094c836a9074a07ac000806888d2
:061fa40000846c82008144
:020000040000fa
:020000041000ea
:101faa000068002808b501da002008bdfff75ffdc8
:061fba00431cfad1f8e718
:020000040000fa
:020000041000ea
:101fc000fd1f0010c51e0010952000109520001068
:041fd0009520001048
:020000040000fa
:020000041000ea
:101fd40008b500f053f8024b1860586008bd00bf04
:041fe400b404002120
:020000040000fa
:020000041000ea
:101fe80032b1c9b20244034603f8011b9a42fbd13d
:041ff800704700bf6f
:020000040000fa
:020000041000ea
:101ffc000a440023914201d10020704701f8013bb3
:02200c00f8e7f3
:020000040000fa
:020000041000ea
:02200e00fee7eb
:020000040000fa
:020000041000ea
:10201000024b40f601021a60704700bf00c0034047
:020000040000fa
:020000041000ea
:10202000b1fa81f252094ff480635200fff7febc0f
:020000040000fa
:020000041000ea
:1020300008b5fff7cfff00f039f800f037f808bd1a
:020000040000fa
:020000041000ea
:0f204000286e756c6c2900286e696c29002500cc
:020000040000fa
:020000041000ea
:0e205000a0f14103192b98bf40f0200070470b
:020000040000fa
:020000041000ea
:02205e007047c9
:020000040000fa
:020000041000ea
:0c2060008001014b1950704720800040a7
:020000040000fa
:020000041000ea
:0c206c008001014b195070472480004097
:020000040000fa
:020000041000ea
:0820780008b5fff78bfd08bd60
:020000040000fa
:020000041000ea
:08208000004870473c050021f7
:020000040000fa
:020000041000ea
:062088000068fff72abf0b
:020000040000fa
:020000041000ea
:06208e004ff0ff30704727
:020000040000fa
:020000041000ea
:042094000020704771
:020000040000fa
:020000041000ea
:04209800002070476d
:020000040000fa
:020000041000ea
:04209c000020704769
:020000040000fa
:020000041000ea
:0420a0000020704765
:020000040000fa
:020000041000ea
:0420a4000020704761
:020000040000fa
:020000041000ea
:0220a80070477f
:020000040000fa
:020000041000ea
:0220aa0070477d
:020000040000fa
:020000041000ea
:0220ac0070477b
:020000040000fa
:020000041000ea
:0220ae00704779
:00000001FF
