:020000040000fa
:020000041000ea
:10000000f0ff0b2159130010b7280010a72c001087
:1000100033350010df3b0010ab3c00100000000047
:10002000000000000000000000000000f71b0010ae
:10003000ff32001000000000f71b0010f71b00103b
:10004000f71b0010f71b0010f71b0010f71b001028
:10005000f71b0010f71b0010f71b0010692f001092
:10006000f71b0010f71b0010f71b0010f71b001008
:1000700029300010c92f0010a92e0010092f0010e0
:10008000f71b0010f71b0010f71b0010f71b0010e8
:10009000f71b0010f71b0010f71b0010f71b0010d8
:1000a000f71b0010f71b0010f71b0010f71b0010c8
:1000b000f71b0010f71b0010f71b0010f71b0010b8
:1000c000f71b0010f71b0010f71b0010f71b0010a8
:1000d000f71b0010f71b0010f71b0010f71b001098
:1000e000f71b0010f71b0010f71b0010f71b001088
:1000f000f71b0010f71b0010f71b0010f71b001078
:1001000000000000f71b0010f71b0010f71b001089
:10011000f71b0010f71b0010f71b0010f71b001057
:10012000f71b0010f71b0010f71b0010f71b001047
:10013000f71b0010f71b0010f71b0010f71b001037
:100140004d2a0010f71b0010000000000000000006
:10015000a53d0010f71b0010f71b0010f71b001047
:0c016000f71b0010f71b0010f71b00102d
:020000040000fa
:020000041000ea
:10016c00f8b500bff8bc08bc9e467047f9370010c4
:10017c00f8b500bff8bc08bc9e467047d5370010d8
:020000040000fa
:020000041000ea
:08018c009414000001000000c2
:020000040000fa
:020000041000ea
:1001940025733a206865616465723d307825303294
:1001a40058206368616e6e656c3d257520727852c7
:1001b40065673d30782530386c58207461696c3d32
:1001c40025750d0a000000000d0a3d3d3d3d3d3df5
:1001d4003d3d3d3d3d3d3d3d3d3d3d3d3d3d3d3d4b
:1001e4003d3d3d3d3d3d3d3d3d3d3d3d3d3d3d3d3b
:1001f4003d3d0d00202053414d5248373120455696
:10020400204b697420697320506f77657265640da3
:1002140000000000202056657273696f6e3a20302a
:100224002e312e300d00000031373a30383a333356
:10023400000000004d61792032392032303236001e
:1002440020204275696c6420446174653a202573ea
:100254002025730d0a0000003d3d3d3d3d3d3d3de3
:100264003d3d3d3d3d3d3d3d3d3d3d3d3d3d3d3dba
:100274003d3d3d3d3d3d3d3d3d3d3d3d3d3d3d3daa
:100284000d000000464c4558434f4d30446d614fbe
:10029400626a0000464c4558434f4d32446d614fed
:1002a400626a0000464c4558434f4d33446d614fdc
:1002b400626a0000464c4558434f4d34446d614fcb
:1002c400626a0000506175736564000052756e6e59
:1002d400696e670053797374656d2025730d0a0088
:1002e400495031353533205254204d6f64652049cf
:1002f4006e697469616c697a65642028416464720a
:100304006573733a202564290d0a0000495031357c
:100314003533205254204572726f723a203078255a
:1003240030386c580d0a000020202d204d656d6f6b
:100334007279205472616e73666572204572726fb1
:10034400720d000020202d205472616e7366657258
:10035400204572726f720d0020202d205472616e40
:100364007366657220436f64696e67204572726fad
:10037400720d000020202d205472616e7366657228
:1003840020506172697479204572726f720d000099
:1003940020202d205472616e736665722054696d3d
:1003a400656f7574204572726f720d004950313556
:1003b40035332052543a2044617461205265636598
:1003c400697665642028636f756e743a20256c75b0
:1003d400290d0a0020205258204275666665722055
:1003e4005374617475733a2030782530386c580d25
:1003f4000a0000004950313535332052543a204424
:100404006174612053656e742028636f756e743a4d
:1004140020256c75290d0a00495031353533205299
:10042400543a2053656c6620546573742052657188
:10043400756573742072656365697665640d000083
:100444004950313535332052543a205472616e7319
:100454006d69747465722053687574646f776e2067
:100464005265717565737420726563656976656438
:100474000d0000004950313535332052543a205292
:1004840065736574205254205265717565737420c8
:1004940072656365697665640d0000000d0a3d3d73
:1004a4003d20495031353533205254204d6f646519
:1004b4002054657374203d3d3d0d00005458206266
:1004c400756666657220534131206c6f61646564a2
:1004d4002077697468207465737420646174610d95
:1004e400000000005458206275666665722053410e
:1004f40032206c6f61646564207769746820746568
:10050400737420646174610d00000000525820620d
:10051400756666657273205341312c205341322035
:10052400726561647920746f2072656365697665ac
:100534000d0000000d0a5254206973207265616435
:10054400792e2057616974696e6720666f72204244
:100554004320636f6d6d616e64732e2e2e0d00004b
:10056400507265737320616e7920627574746f6e56
:1005740020746f20636865636b2073746174757392
:100584002e0d00003d3d3d3d3d3d3d3d3d3d3d3d50
:100594003d3d3d3d3d3d3d3d3d3d3d3d3d3d3d3d87
:1005a4003d3d3d3d3d0d000043697263756c6172d4
:1005b40020444d4120284c696e6b6564204c69735e
:1005c40074292073746172746564206f6e2063688b
:1005d400616e6e656c2025640d0a00002020427552
:1005e400666665723a2030782530386c582c205372
:1005f400697a653a2025640d0a0000004552524f7d
:10060400523a204661696c656420746f207374618a
:100614007274204c696e6b6564204c697374204459
:100624004d41206f6e206368616e6e656c20256499
:100634000d0a00005b54585d20444d412046414959
:100644004c45443a2066726f6d20636825750d0a27
:10065400000000000d0a3d3d3d2043697263756c46
:10066400617220444d4120446961676e6f737469ff
:100674006373203d3d3d0d00717565756520707592
:10068400736865733d256c752066756c6c44726f78
:1006940070733d256c750d0a000000007278206ea1
:1006a4006f74456e6f7567683d256c75206f766550
:1006b4007277726974655269736b3d256c750d0aa6
:1006c400000000007478207374617274733d256cab
:1006d4007520627573794465666572733d256c7522
:1006e40020777261704c696e656172697a65643de8
:1006f400256c7520646d614661696c733d256c756c
:1007040020696e76616c696444726f70733d256c08
:10071400750d0a0074782063683d25752062757331
:10072400793d25752067733d256c75207065726968
:10073400643d256c75206473796e633d256c750d7d
:100744000a000000464c4558434f4d302070616309
:100754006b6574733d256c75206f76657272756e6a
:10076400733d256c752070617273654572726f728a
:10077400733d256c750d0a00464c4558434f4d3268
:10078400207061636b6574733d256c75206f7665ad
:100794007272756e733d256c752070617273654558
:1007a40072726f72733d256c750d0a00464c455884
:1007b400434f4d33207061636b6574733d256c75d5
:1007c400206f76657272756e733d256c752070614d
:1007d4007273654572726f72733d256c750d0a00f4
:1007e400464c4558434f4d34207061636b657473b8
:1007f4003d256c75206f76657272756e733d256c40
:10080400752070617273654572726f72733d256ce9
:04081400750d0a0054
:020000040000fa
:020000041000ea
:10081800c43600211c00000000000000fc36002146
:1008280008000000000000000b3500210100000056
:1008380000000000e0360021100000000000000069
:10084800ac350021d0000000000000002c3700214a
:100858000800000001000000000000030303030378
:100868007c36002124000000000000000c35002127
:10087800500000000000000029370021010000009e
:1008880001000000010000000c37002108000000f2
:1008980000000000283700210100000000000000cf
:1008a80004200021001000000000000000000021ca
:1008b800042000000000000040370021600800000c
:1008c800040000000400ff00ff00ff00ff00ff001d
:1008d800ff00ff00ff004903000118020240001852
:1008e800a03f002160080000040000000300ff0092
:1008f800ff00ff00ff00ff00ff00ff00ff004902ac
:10090800000118c2014000180048002160080000da
:10091800040000000200ff00ff00ff00ff00ff00ce
:10092800ff00ff00ff004901000118820140001884
:1009380060500021600800000400000000ff00ff74
:1009480000ff00ff00ff00ff00ff00ff004c18023f
:1009580001400018a036002124000000000000001b
:100968000c340021ff0000000000000014370021b3
:1009780004000000000000001837002104000000f7
:10098800000000005c35002150000000000000005d
:10099800c05800216c00000001000000cc58002164
:1009a800c8580021cc580021000000002500000094
:1009b8000c300021000400000000000000000000ce
:1009c800000000000000000000000000000000001f
:1009d8000000000000000000093f001000000000b7
:1009e800000000000000000000000000452e00107c
:1009f80000000000000000000000000000000000ef
:100a0800000000000000000004300021080400007d
:100a1800000000008c5900212000000001000000a7
:100a280001000000030000000000000000000000ba
:100a38000000000000000000000000000437002152
:100a48000437002108000000000000001c370021c6
:100a580008000000000000002c5900216000000080
:100a68000100000001000000030000000000000079
:100a7800000000000000000000000000000000006e
:100a880041310010000000000000000000000000dc
:100a9800f13e00101b3f00100000000000000000a5
:100aa800000000000000000000000000000000003e
:100ab800000000000000000000000000000000002e
:100ac800000000003437002104000000010000008d
:100ad800010000002437002104000000000000008d
:100ae800f03600210c0000000000000000000000ab
:100af8006c01000001000000f0ff0b2159130010e9
:100b0800b7280010a72c001033350010df3b001069
:100b1800ab3c0010000000000000000000000000d6
:100b280000000000f71b0010ff320010000000005a
:100b3800f71b0010f71b0010f71b0010f71b001025
:100b4800f71b0010f71b0010f71b0010f71b001015
:100b5800f71b0010692f0010f71b0010f71b00107f
:100b6800f71b0010f71b001029300010c92f0010c8
:100b7800a92e0010092f0010f71b0010f71b0010fa
:100b8800f71b0010f71b0010f71b0010f71b0010d5
:100b9800f71b0010f71b0010f71b0010f71b0010c5
:100ba800f71b0010f71b0010f71b0010f71b0010b5
:100bb800f71b0010f71b0010f71b0010f71b0010a5
:100bc800f71b0010f71b0010f71b0010f71b001095
:100bd800f71b0010f71b0010f71b0010f71b001085
:100be800f71b0010f71b0010f71b0010f71b001075
:100bf800f71b0010f71b001000000000f71b001087
:100c0800f71b0010f71b0010f71b0010f71b001054
:100c1800f71b0010f71b0010f71b0010f71b001044
:100c2800f71b0010f71b0010f71b0010f71b001034
:100c3800f71b0010f71b00104d2a0010f71b0010bf
:100c48000000000000000000a53d0010f71b001088
:100c5800f71b0010f71b0010f71b0010f71b001004
:100c6800f71b0010000000000000000066666666c2
:020000040000fa
:020000041000ea
:100c780030b58d4b0022c3f88420bff34f8f5a69db
:100c880022f480325a61bff34f8fd3f88030c3f318
:100c9800c904c3f34e334fea431c43f6e07e82484f
:100ca8000cea0e01234641ea8372c0f87422013b24
:100cb800b3f1ff3ff7d1acf1200c1cf1200fefd1bd
:100cc800bff34f8fbff36f8fbff34f8fbff36f8f9c
:100cd800754b5a6922f400325a610022c3f8502237
:100ce800bff34f8fbff36f8f704b4ff025421a61e0
:100cf8006f4a116a6f4b0b431362936e13f4003ff4
:100d0800fbd04ff040236c4a5a60bff34f8fbff3bc
:100d18006f8f1a46936813f0010ffbd04ff04022f3
:100d2800d168664b1960d1685960d1689960d268fa
:100d3800da60bff34f8fbff36f8f5a689b689a4290
:100d480000f0ca805e4b1b78002b40f0ce805849db
:100d58000b6a5c4a1a405c4b13430b620a46936e5b
:100d680013f4003ffbd0524a116a584b0b4043f42e
:100d78005c131362936e13f0080ffbd04c4b524a6e
:100d8800c3f8b02143f20302c3f88020504a9a62a4
:100d98001a46936e13f0020ffbd0454a136b23f0eb
:100da80070031363936e13f0080ffbd0404a136b64
:100db80043f480731363936e13f0080ffbd03c4a1f
:100dc800136b23f0030343f002031363936e13f0d2
:100dd800080ffbd0364b3f4ac3f80c210132c3f849
:100de8000c210232c3f80c210332c3f80c21013262
:100df800c3f80c210132c3f80c210732c3f80c21c7
:100e08002a32c3f80c2102f1015202f20442c3f85b
:100e18000c21254b5b6913f4803f2bd1224b002218
:100e2800c3f88420bff34f8fd3f88030c3f3c90ec3
:100e3800c3f34e334fea431c43f6e0741a480ceaf6
:100e48000401734641ea8372c0f86022013bb3f1a2
:100e5800ff3ff7d1acf1200c1cf1200fefd1bff30d
:100e68004f8f114a536943f480335361bff34f8f57
:100e7800bff36f8f0c4b5b6913f4003f13d1bff3c3
:100e88004f8fbff36f8f084b0022c3f85022bff378
:100e98004f8fbff36f8f5a6942f400325a61bff324
:100ea8004f8fbff36f8f30bd00ed00e000021040a0
:100eb80000c00040080037000d00005ae03600214d
:100ec8000b3500218fffc8ff30003700ffffc8fe39
:100ed800017f092007100010484b9a68db689a4286
:100ee8007ff430af464b01221a70444948688008a5
:100ef80000f01c004c6804f003044b684a684fea91
:100f0800531e0ef01c0e02f003034eea030e4b684c
:100f18004a681b0a03f01c0302f003021a434b68d9
:100f280049684fead32c0cf01c0c01f003034cea7f
:100f3800030c34490d6a344b2b4043f45c130b62a9
:100f48008b6e13f4003ffbd0bff34f8fbff36f8f4f
:100f58002c49d1f810512d4b2b43c1f81031d1f841
:100f6800b0512b4b2b43c1f8b031d1f810511306b7
:100f780043ea0e23274a2a40134343ea0c43c1f8a5
:100f88001031d1f8b021244b134043f45c13c1f85d
:100f9800b031bff34f8fbff36f8f0b6a1a4a1a40f5
:100fa8001e4b13430b620a46936e13f4003ffbd0ab
:100fb800bff34f8fbff36f8f124bd3f8102142f05e
:100fc8008002c3f81021d3f8b011114a0a43c3f8bc
:100fd800b021d3f8102122f07f0222430243c3f844
:100fe8001021d3f8b0110c4a0a4042f45c12c3f83d
:100ff800b021bff34f8fbff36f8fa8e6e036002113
:101008000b35002100c000408fffc8ff00808080a2
:1010180000013700ff808080fffec8ff1000370006
:020000040000fa
:020000041000ea
:101028002de9f047aeb00746164605914ff0000887
:10103800059d2b78002b00f0e08000244ff0ff3353
:10104800cde909430eab0c9380230b940d932b5dd4
:101058000bb1252b30d134b12946224638462544d8
:1010680002f0f3fb0595059b1a78252a40f0bc8011
:1010780003f10109cdf814904a46002113782b2b6f
:10108800104602f1010223d02ed8202b24d0232b86
:1010980026d001b105902a2b2ed002f051fb059adb
:1010a8000b900020114601320b78303b092b79d97f
:1010b800002830d005912ee00134c8e7099b43f0a1
:1010c800010309930121d9e7099b43f00203f8e7db
:1010d800099b43f00403f4e7099b43f00803f0e796
:1010e800099b43f01003ece72d2be7d0302bebd016
:1010f8000029d2d00590d0e733681a1d1b683260ea
:101108000130002b05900b9305da099a5b4282f0b7
:10111800010209920b93099bda0744bf23f00203eb
:101128000993059b1a782e2a0fd14ff0000acdf8a3
:1011380028a05a785d1c2a2a059535d102330593d3
:1011480033681a1d1b6832600a9305a802f0d6fba3
:10115800059d0390287802f083fe2528039900f066
:10116800da806138172800f2e080172800f2dd8065
:10117800dfe810f02b00db00b6004700a700a7004f
:10118800a700db004700db00db00db00db009e0084
:1011980065008300db00db00c700db005600db00d6
:1011a800db00740001207de7284602f0c9fa5346a7
:1011b8000a90294601350a78303a092a03d9002bc2
:1011c800c3d00591c1e70123f3e7324606a802f030
:1011d80060fc002872d06b1c059306aa2b7809a91d
:1011e800384602f08bfe04444444a04540f3a780ef
:1011f800544b4f221a604ff0ff3840462eb0bde8de
:10120800f0873346012206a800f0cafe002855d010
:10121800013506aa09a93846059500f0d1ffe2e78d
:101228003346002206a800f0bbfe002846d0013550
:1012380006aa09a93846059502f032f8d3e73346dd
:10124800002206a800f0acfe002837d0013506aa17
:1012580009a93846059502f04ffec4e73346002237
:1012680006a800f09dfe48b36b1c05932b7806aad0
:1012780009a9384600f02afcb5e733460022f021d8
:1012880006a800f08dfec8b1dde90632013513432a
:1012980005950bd12c4802f053fd099b00932a4970
:1012a8000b9b0246384601f00dfc9ce77823dee7ed
:1012b800334608eb040206a801f0b9fc0135059590
:1012c80092e7324606a802f0e4fb0028f6d06b1c31
:1012d800059306aa2b7809a9384602f00ffe82e783
:1012e8008029ebd1336801351a1d1b6832608df8ef
:1012f80018300595012306aa09a9384601f0a4ff6c
:1013080071e78029dad13268131d3360013512681c
:1013180005950023f0e78029d0d1099b009301357a
:101328000b9b059509490122bce700234ff0ff32ca
:10133800cdf8149009930b930a920093f2e7a04614
:1013480076e600bf203700215f3e0010653e0010a2
:020000040000fa
:020000041000ea
:1013580008b5a84b9847a84b9847eff3108172b689
:10136800a64ad2f8883043f47003c2f88830bff335
:101378004f8fbff36f8f01b962b6bff34f8fbff3c3
:101388006f8f9f4b00221a60bff34f8fbff36f8f91
:101398009a4b0122c3f89022c3f89422bff34f8fcf
:1013a800bff36f8f5b6913f4003f13d1bff34f8f07
:1013b800bff36f8f914b0022c3f85022bff34f8fba
:1013c800bff36f8f5a6942f400325a61bff34f8fef
:1013d800bff36f8f894b5b6913f4803f2bd1874b29
:1013e8000022c3f88420bff34f8fd3f88030c3f3b3
:1013f800c90ec3f34e334fea431c43f6e0747f48eb
:101408000cea0401734641ea8372c0f86022013b8a
:10141800b3f1ff3ff7d1acf1200c1cf1200fefd155
:10142800bff34f8f754a536943f480335361bff359
:101438004f8fbff36f8f4ff40031002002f026f872
:101448004ff480214ff0005002f020f8bff34f8f87
:10145800bff36f8f694b5a6922f400325a61002238
:10146800c3f85022bff34f8fbff36f8fc3f88420a8
:10147800bff34f8f5a6922f480325a61bff34f8ffe
:10148800d3f88030c3f3c904c3f34e334fea431c87
:1014980043f6e07e59480cea0e01234641ea83727e
:1014a800c0f87422013bb3f1ff3ff7d1acf1200c37
:1014b8001cf1200fefd1bff34f8fbff36f8fbff336
:1014c8004f8fbff36f8f4e4b00221a604b4a072194
:1014d800c2f89012c2f89412bff34f8fbff36f8f08
:1014e80001221a60bff34f8fbff36f8fbff34f8f87
:1014f800bff36f8f4ff00453424a984698f8c0f0f4
:1015080098ec200bbff34f8fbff36f8f984688ec92
:10151800200bbff34f8fbff36f8f80339342ecd113
:10152800bff34f8fbff36f8fbff34f8fbff36f8f33
:10153800324c0723c4f89032c4f89432bff34f8f6b
:10154800bff36f8f02f044fa2f4b23f07f03a360a1
:101558002e4b9847636913f4003f12d1bff34f8fa6
:10156800bff36f8f0022c4f85022bff34f8fbff331
:101578006f8f626942f400326261bff34f8fbff32d
:101588006f8f1e4b5b6913f4803f2bd11b4b0022de
:10159800c3f88420bff34f8fd3f88030c3f3c90e4c
:1015a800c3f34e334fea431c43f6e07413480cea86
:1015b8000401734641ea8372c0f86022013bb3f12b
:1015c800ff3ff7d1acf1200c1cf1200fefd1bff396
:1015d8004f8f0a4a536943f480335361bff34f8fe7
:1015e800bff36f8f0a4b98470a4b984700f03afdb4
:1015f800fee700bf073e0010073e001000ed00e0c8
:101608000004104000000c2100000000e53000102c
:08161800073e0010073e001020
:020000040000fa
:020000041000ea
:101620002de9f04786468c460846089e15467446c6
:101630001946002b40f0c2808242b2fa82f245d9ac
:101640004ab1c2f1200300fa02fc2efa03f39540de
:1016500043ea0c0c94404fea154ea8b2bcfbfef8ce
:10166000230c0efb18cc08fb00f943ea0c43994508
:1016700028d9eb1808f1ff3704d2994502d9a8f10f
:1016800002072b44a3eb0903a4b2b3fbfefc0efb41
:101690001c330cfb00f044ea0344a04214d92c197b
:1016a0000cf1ff3304d2a04202d9acf102032c4466
:1016b000241a43ea07401eb1d4400023346073600b
:1016c000bde8f0874746dde76346f1e792bb431b81
:1016d00001214fea154eafb2b3fbfefc200c0efb0e
:1016e0001c330cfb07f840ea0343984562d9eb181a
:1016f0000cf1ff3004d2984502d9acf102002b4422
:10170000a3eb0803a4b2b3fbfefc0efb1c330cfbe3
:1017100007f744ea0344a7424ed92c190cf1ff33d2
:1017200004d2a74202d9acf102032c44e41b43eae1
:101730000040c0e7c2f1200320fa03f19540904039
:101740002efa03f303434fea154eafb2b1fbfefc92
:101750000efb1c10190c0cfb07f841ea00418845f0
:1017600004fa02f422d969180cf1ff3004d288453a
:1017700002d9acf102002944a1eb08019bb2b1fbf4
:10178000fefc0efb1c110cfb07f743ea01439f42d2
:101790000ed9eb180cf1ff3104d29f4202d9acf103
:1017a00002012b44db1b41ea004192e76046e3e77c
:1017b0006146f7e76046a3e76346b7e7834206d989
:1017c00016b9002108467be7c6e900e0f9e7b3fa5d
:1017d00083f78fb9834201d3724508d8beeb020468
:1017e00060eb030301209c461eb9002168e73846e0
:1017f000fae7c6e9004cf8e7c7f1200cbb4022fa33
:101800000cf41c432efa0cf120fa0cf3b8400143ff
:101810004fea14490efa07f5b3fbf9f81ffa84fef4
:1018200009fb18300b0c08fb0efa43ea00439a45fb
:1018300002fa07f240d9e31808f1ff3004d29a45c2
:1018400002d9a8f102002344a3eb0a0389b2b3fb37
:10185000f9f809fb183308fb0efe41ea03418e45f7
:101860002cd9611808f1ff3304d28e4502d9a8f1b2
:101870000203214443ea0040a0fb0298a1eb0e01c1
:101880004145ce46434602d306d14d4504d2b9eb7d
:10189000020e68eb04030138002ea6d0b5eb0e0251
:1018a00061eb030101fa0cfc22fa07f34cea030393
:1018b000f940c6e9003198e74046c5e74346d9e715
:020000040000fa
:020000041000ea
:1018c000774b5a881b889a4200f0e9802de9f04155
:1018d000042002f085f900282ed1724b03f5005246
:1018e000528813f8226003eb82035d7855b36d4b89
:1018f00003eb8203d9789b7843ea01231cb26a4b3d
:101900001b78b34243d0694b1b78b34200f0c180cf
:10191000674b1b78b34200f0be80664b1b78b34226
:1019200000f0bb806449cb690133cb61531cc3f326
:101930000a035b4a538003e05f4a536901335361f2
:10194000bde8f0810132c2f30a02554b5a80f7e735
:10195000594a136a013313623146584802f052f96a
:10196000eee72b46564a042001f03afa30b14c4ad1
:1019700053880133c3f30a035380e1e74e4a136ae5
:101980000133136231464d4802f03cf9d8e7464f27
:101990004c4855220270467085700022c270014684
:1019a0000430494ad2f8143213f0020ffad011f879
:1019b000013bc2f81c328142f4d1c4f30a0303f1a3
:1019c00040013944c3f50064a4b2ac4228bf2c46a0
:1019d000394a136901331361a542c2d9a5eb040842
:1019e0001ffa88f801f01f002044bff34f8f0b4609
:1019f000dff8dcc00844ccf85c322033c21a002a7d
:101a0000f9dcbff34f8fbff36f8f22462f4802f0f0
:101a100077f907f140010b46bff34f8f08f1ff3212
:101a200022f01f0260323a442948c0f85c32203369
:101a30009342fad1bff34f8fbff36f8f234f4246cc
:101a4000381902f05df907f01f022a44bff34f8fe7
:101a50003b461f483a44c0f868322033d11a002967
:101a6000f9dcbff34f8fbff36f8f134a93690133d4
:101a700093612b46124a1549042001f0b1f9002860
:101a80003ff466af064a53880133c3f30a03538019
:101a900056e7064f7ce7064f7ae7064f78e7704730
:101aa000002000210000002160500021004800219a
:101ab000a03f002140370021a03600213806001049
:101ac0001c42014014370021004001400c34002129
:041ad00000ed00e045
:020000040000fa
:020000041000ea
:101ad4002de9f04f8bb00d460493d1e901132f6823
:101ae400d5f80c9003900029a8bf27f0020792466e
:101af400b8bf012117f010020592dae9006232d072
:101b040056ea02002fd0a3f1020b2c69029617f0bb
:101b1400080004f1ff3418bf0bf1ff3b904600228c
:101b240009f8042006905a46012c1edc059a002a66
:101b340051d1069a1ab1013c202209f804202a69dd
:101b440003980097013a121b09eb040100f0bcff53
:101b5400039b5b68db0503d56b689842b8bf1846e6
:101b64000bb0bde8f08f9b46cfe7029850ea08001f
:101b740008d1a1eb0b001044002803dc002ad5ddba
:101b8400b807d3d50298049e00f00f000928a6f1e7
:101b9400410cd4bf30305730bcf1190f04f1ff347d
:101ba4000ed840f0200cacf1610cbcf1190f07d831
:101bb400cde90813079202f05cf9dde90813079aee
:101bc40009f804000298060946ea0870013a0290ee
:101bd4004fea1818a8e7dae900210a43a9d009eb6b
:101be4000402049902f8011c023c302209f8042082
:021bf4009fe769
:020000040000fa
:020000041000ea
:021bf600fee708
:020000040000fa
:020000041000ea
:101bf80010b502f05bf9044690b143f6c27318427f
:101c080010d114f0040f34d114f0080f40d114f49b
:101c1800803f46d114f4003f47d114f4001f48d147
:101c2800204610bd0146254801f0e8ff14f0020fd8
:101c38000fd114f0400f10d114f0800f11d114f40b
:101c4800807f12d114f4806fdbd01d4801f088ff2b
:101c5800d7e71c4801f084ffebe71b4801f080ff41
:101c6800eae71a4801f07cffe9e7194801f078ff34
:101c7800e8e7184b1a6801321a601968164801f02b
:101c8800bdff02f007f90146144801f0b7ffbbe7b2
:101c9800134b1a6801321a601968124801f0aeff36
:101ca800b5e7114801f05cffb4e7104801f058ffb0
:101cb800b3e70f4801f054ffb2e700bf100300106c
:101cc800940300102c030010480300105c0300105c
:101cd8007803001010370021b0030010d80300105b
:101ce8000c370021f80300101c04001044040010f5
:041cf800780400105c
:020000040000fa
:020000041000ea
:101cfc0070b582b0042002f0e3f80546294b5e6a09
:101d0c00294801f02bff294ce268a168284801f012
:101d1c0073ff62682168274801f06effe369019345
:101d2c00236a0093a36962692169234801f064ff67
:101d3c00042001f04fff0246c5f300130193c5f3d5
:101d4c0006650095c6f3001304211c4801f054ffee
:101d5c001b49d1f85438d1f85028d1f84c181948ef
:101d6c0001f04aff1849d1f85438d1f85028d1f86d
:101d7c004c18164801f040ff1549d1f85438d1f8e9
:101d8c005028d1f84c18134801f036ff1249d1f8fd
:101d9c005438d1f85028d1f84c18104801f02cffc9
:101dac0002b070bd0080094058060010a03600211a
:101dbc007c060010a0060010c806001018070010c2
:101dcc006050002148070010004800217c070010db
:101ddc00a03f0021b007001040370021e40700109d
:020000040000fa
:020000041000ea
:101dec0070b582b004460021a0f8401800f14005ff
:101dfc004ff40062284601f0e3ff05f01f02bff329
:101e0c004f8f2b462c4804f504611144c0f85c320a
:101e1c002033ca1a002af9dcbff34f8fbff36f8f40
:101e2c0004f120012162a56200224ff40063a38417
:101e3c0084f8262094f8273003f0fd0343f00503c3
:101e4c0062f3c40384f8273001f01f02bff34f8ff5
:101e5c000b46194e04f140001044c6f8683220338a
:101e6c00c21a002af9dcbff34f8fbff36f8f94f8bf
:101e7c004228d4f844089201104b985094f827301b
:101e8c008df8043001aa94f8420800f03bff60b1d1
:101e9c0094f842180a4801f0affe4ff4006229464c
:101eac00084801f0a9fe02b070bd94f8421806482b
:101ebc0001f0a2fef7e700bf00ed00e060800940f2
:0c1ecc00ac050010e0050010000600103e
:020000040000fa
:020000041000ea
:101ed80000b590f800e0b0f840c890f842389b018f
:101ee8002b4919440b6f23f07f430a6f22f07f427e
:101ef8009342f7d15b42c3f30a039c4537d8a3eb5f
:101f08000c039bb2fe2b37d9b3f5e06f03d9214af6
:101f180053680133536020490b885a1cc2f30a02e4
:101f2800498891422ed01d4901f823e001eb830333
:101f38004ff0ff0e83f801e083f802c04fea1c2e31
:101f480083f803e00cf1ff0cccf30a0ca0f840c8ae
:101f580001f500510a80d0f84c380133c0f84c38ec
:101f68000c4a93680133936001205df804fbccf5bb
:101f7800006213449bb2c5e7064a13680133136035
:101f88000020f2e7034ad3680133d3600020ece76e
:101f980000800940a0360021002000210000002117
:020000040000fa
:020000041000ea
:101fa800902910b50fdc7f2913dd8039102910d84e
:101fb800dfe801f02b2b360f110f0f0f200f0f0f3b
:101fc8000f0f0f0f3600c02944d0f02942d0a029a6
:101fd80021d000200de019682ab10a1d1a60b1f954
:101fe8000030da1702e00c1d1c600b88c0e90032d3
:101ff800012010bd196822b10a1d1a6091f900303c
:10200800efe70c1d1c600b78f0e71968f2b10a1da8
:102018001a600b68e5e71a68111d19601368e0e794
:10202800196852b1073121f0070101f108021a605d
:10203800d1e90023c0e90023dae7ca1d22f007022c
:1020480002f108011960d2e90023f3e70c1d1c60b6
:102058000b68cbe71a68111d196013680360002329
:042068004360c5e725
:020000040000fa
:020000041000ea
:10206c0008b5002000f082fe042001f019fe0022c9
:10207c0020495d2001f002f81f4c002221465e2011
:10208c0000f0fcff002221465f2000f0f7ff4ff02c
:10209c000051022001f00eff4ff08041022001f0b0
:1020ac0009ff4ff00041022001f004ff1348fff735
:1020bc0097fe1348fff794fe1248fff791fe124863
:1020cc00fff78efe00f042fa104a1378002bfcd179
:1020dc0001f058fb0d4c094e094d2378002bfcd117
:1020ec003046fff7f3fe2846fff7f0fefff7e2fb62
:1020fc00f3e700bfa5390010013300106050002138
:10210c0000480021a03f0021403700212937002141
:020000040000fa
:020000041000ea
:10211c0030b4244b244a1a6001205860234ac3f877
:10212c008020c3f884004ff06045c3f88050002134
:10213c00c3f884104ff00052c3f88020d3f88420e9
:10214c0002f007021a4c2243c3f884204ff080425d
:10215c00c3f88020d3f8842002f007022243c3f88e
:10216c0084204ff00042c3f88020d3f8842002f082
:10217c0007022243c3f88420c3f89450d3f8ac3040
:10218c000c4b4ff0c0421a6458640b4b5d221a7012
:10219c005e221a735f221a7659601961d96130bcbc
:1021ac00704700bf00800040440018000306600028
:0c21bc0000040001008100407c3600217e
:020000040000fa
:020000041000ea
:1021c8002de9f041d2e900230c4686b005465feac6
:1021d800d378d1e901060968e76805913fd05242f2
:1021e80063eb4303002808db21f002010591b8f1f5
:1021f800000f02d10599480722d5711e05a8029043
:102208000a20cde90010204600f09afcb8f1000f32
:102218001ad001382d233b542269059b0093013abb
:102228003346121a3918284600f04cfc6b68db0557
:1022380003d563689842b8bf184606b0bde8f08178
:102248000807dad43146d9e7059b590702d5013882
:102258002b23e0e71a07dfd501382023dbe7002826
:04226800c2dac7e728
:020000040000fa
:020000041000ea
:10226c0010b400231e481a464fea031c00eb03115e
:10227c0000f80c204a608a600a730133052bf3d1f5
:10228c00184b194a9a67712018650122da601449b3
:10229c000a70164cc3f8b840c3f890000224dc60f6
:1022ac000a74134cc3f8f840c3f8d0000424dc6063
:1022bc0081f820200f4cc3f83841c3f810010824d2
:1022cc00dc6081f830200c4cc3f87841c3f8500125
:1022dc001020d86081f840205df8044b704700bf97
:1022ec000c35002100800940014004010140040527
:0c22fc001120010601400409112001021c
:020000040000fa
:020000041000ea
:10230800f8b5214a136ad46992f82c20002a3ad0e9
:102318001e4ad2f8142212f0010f22d0a34220d272
:102328005a1c1a49184e1a4d0fe0b06995f818c092
:1023380000f803c0d1f8140202f1010c013310f0c7
:10234800010f0fd0a2420dd26246d1f8040210f458
:10235800003fead0288bb769c0f3080027f81300bc
:10236800e8e71a46084b1a6294420cd8002283f810
:102378002c20064ae121c2f80c125b6a1bb1024b01
:10238800986a5b6a9847f8bdac35002100c00140e7
:0423980000c201403e
:020000040000fa
:020000041000ea
:10239c00f8b5214a136ad46992f82c20002a3ad055
:1023ac001e4ad2f8142212f0010f22d0a34220d2de
:1023bc005a1c1a49184e1a4d0fe0b06995f818c0fe
:1023cc0000f803c0d1f8140202f1010c013310f033
:1023dc00010f0fd0a2420dd26246d1f8040210f4c4
:1023ec00003fead0288bb769c0f3080027f8130028
:1023fc00e8e71a46084b1a6294420cd8002283f87c
:10240c002c20064ae121c2f80c125b6a1bb1024b6c
:10241c00986a5b6a9847f8bde035002100000240dd
:04242c000002024068
:020000040000fa
:020000041000ea
:10243000f8b5214a136ad46992f82c20002a3ad0c0
:102440001e4ad2f8142212f0010f22d0a34220d249
:102450005a1c1a49184e1a4d0fe0b06995f818c069
:1024600000f803c0d1f8140202f1010c013310f09e
:10247000010f0fd0a2420dd26246d1f8040210f42f
:10248000003fead0288bb769c0f3080027f8130093
:10249000e8e71a46084b1a6294420cd8002283f8e7
:1024a0002c20064ae121c2f80c125b6a1bb1024bd8
:1024b000986a5b6a9847f8bd143600210000014015
:0424c00000020140d5
:020000040000fa
:020000041000ea
:1024c400f8b5214a136ad46992f82c20002a3ad02c
:1024d4001e4ad2f8142212f0010f22d0a34220d2b5
:1024e4005a1c1a49184e1a4d0fe0b06995f818c0d5
:1024f40000f803c0d1f8140202f1010c013310f00a
:10250400010f0fd0a2420dd26246d1f8040210f49a
:10251400003fead0288bb769c0f3080027f81300fe
:10252400e8e71a46084b1a6294420cd8002283f852
:102534002c20064ae121c2f80c125b6a1bb1024b43
:10254400986a5b6a9847f8bd4836002100800140cc
:0425540000820140c0
:020000040000fa
:020000041000ea
:1025580010b584b01b4801f003fb1f2000f0ecf914
:10256800194b6c460fcb84e80f0008222146012046
:1025780001f0e2fa154801f0f3fa45f25553adf8c7
:10258800003046f26663adf8023008222146022088
:1025980001f0d2fa0e4801f0e3fa022001f080fcc3
:1025a800042001f07dfc0b4801f0dafa0a4801f03a
:1025b800d7fa0a4801f0d4fa094801f0d1fa04b070
:1025c80010bd00bfa0040010283e0010c004001079
:1025d800e80400101005001038050010640500100c
:0425e8008805001052
:020000040000fa
:020000041000ea
:1025ec00204b1b7d002b3cd070b51e4a9368546861
:1025fc001d4ad2f8142212f0020f20d0a3421ed290
:10260c005a1c1949174e194d0de03068c05c2877db
:10261c00d1f8140202f1010c013310f0020f0fd0ab
:10262c0094420dd96246d1f8040210f4003fecd06c
:10263c00306830f81300c0f30800a883e8e71a46a6
:10264c00084b9a6094420bd800221a75064a022154
:10265c00c2f80c12db681bb1024b1869db68984797
:10266c0070bd7047ac35002100c0014000c2014074
:020000040000fa
:020000041000ea
:10267c00204b1b7d002b3cd070b51e4a93685468d0
:10268c001d4ad2f8142212f0020f20d0a3421ed2ff
:10269c005a1c1949174e194d0de03068c05c28774b
:1026ac00d1f8140202f1010c013310f0020f0fd01b
:1026bc0094420dd96246d1f8040210f4003fecd0dc
:1026cc00306830f81300c0f30800a883e8e71a4616
:1026dc00084b9a6094420bd800221a75064a0221c4
:1026ec00c2f80c12db681bb1024b1869db68984707
:1026fc0070bd7047e035002100000240000202402e
:020000040000fa
:020000041000ea
:10270c00204b1b7d002b3cd070b51e4a936854683f
:10271c001d4ad2f8142212f0020f20d0a3421ed26e
:10272c005a1c1949174e194d0de03068c05c2877ba
:10273c00d1f8140202f1010c013310f0020f0fd08a
:10274c0094420dd96246d1f8040210f4003fecd04b
:10275c00306830f81300c0f30800a883e8e71a4685
:10276c00084b9a6094420bd800221a75064a022133
:10277c00c2f80c12db681bb1024b1869db68984776
:10278c0070bd70471436002100000140000201406a
:020000040000fa
:020000041000ea
:10279c00204b1b7d002b3cd070b51e4a93685468af
:1027ac001d4ad2f8142212f0020f20d0a3421ed2de
:1027bc005a1c1949174e194d0de03068c05c28772a
:1027cc00d1f8140202f1010c013310f0020f0fd0fa
:1027dc0094420dd96246d1f8040210f4003fecd0bb
:1027ec00306830f81300c0f30800a883e8e71a46f5
:1027fc00084b9a6094420bd800221a75064a0221a3
:10280c00c2f80c12db681bb1024b1869db689847e5
:10281c0070bd7047483600210080014000820140a5
:020000040000fa
:020000041000ea
:10282c002de9ff41836947690093ff1acde90171d6
:10283c0004461646039217444ff002086d46206872
:10284c004246294601f04df9b84209d1d4e9023289
:10285c00c4e905331a44a262304604b0bde8f081e5
:10286c0000280dda6268002342f01002b8f1020f62
:10287c00c4e90533a362626015d06b68f61aebe706
:10288c006b68984288bf0835a7eb000788bfc01a51
:10289c002b6803442b606b68a3eb000388bf08f123
:0a28ac00ff386b60cbe71e46d6e74d
:020000040000fa
:020000041000ea
:0228b600fee73b
:020000040000fa
:020000041000ea
:1028b8001e4ad16821f4e0610904090c1c4b0b4342
:1028c800d360bff35f8f62b61a4be02183f807131a
:1028d8008020186083f80c134ff48050186083f838
:1028e8000d134ff40050186083f80e134ff4804016
:1028f800186083f80f134ff40040186083f84013f2
:102908000120986083f8441310219960536a43f4b6
:102918008023536253690b435361536a43f4003372
:102928005362536a43f480335362704700ed00e00a
:082938000000fa0500e100e0d7
:020000040000fa
:020000041000ea
:10294000f8b50446184e4ff400652a46002130467b
:1029500001f03cfa154f2a460021384601f036fabc
:10296000630003f03e03124d2b603946304601f000
:1029700089fa4ff0ff3001f08bfa4ff0ff3001f091
:1029800093fa00210b4801f047fa4f232b620a4bc0
:1029900001221a700023094a1360094a1360214674
:1029a000084801f02ff9f8bd042800210420002177
:1029b00000c00340d93e0010283700211037002105
:0829c0000c370021e4020010b5
:020000040000fa
:020000041000ea
:1029c800dff87cc0f0b5dcf800400346002c35d0b9
:1029d8000022214615461046d1f800e00e699e45b2
:1029e80009d12ab1166101f11000f0bd3146f3e7b3
:1029f800ccf80060f7e705d9e8b10768be453cbfe9
:102a0800154608460a46002ef0d10028edd00146aa
:102a1800066951f8102bd21a102a05d903600b4405
:102a2800103a1e611a601e4684420cbfccf8006042
:102a38002e610846d9e715460846e3e72046d4e75d
:042a4800243700210e
:020000040000fa
:020000041000ea
:102a4c0070b500241c4d1d4e08e01b4b03eb04130a
:102a5c005b68022098470134052c2cd0220105eb31
:102a6c000413aa5c9968002af5d07369e34013f04b
:102a7c00010ff0d006eb8413db6d13f0700f08d050
:102a8c000d4b03eb041300221a735b68002bdcd193
:102a9c00e1e713f0010fded0074b03eb0413002228
:102aac001a735b68002bd6d0034b03eb04135b68e3
:102abc0001209847cfe770bd0c35002100800940fc
:020000040000fa
:020000041000ea
:102acc002de9ff471d460c9b13f0010806460f46e7
:102adc00144601d195420bd822463946304600f0b7
:102aec00b2fea54204d82546284604b0bde8f087be
:102afc00a5eb04094a46102a28bf1022202168465b
:102b0c00ca4601f05df900bfbaf10f0f0ed809f0fb
:102b1c000f026946304600f096feb8f1000fe3d183
:102b2c0022463946304600f08efedde7102269461b
:0c2b3c00304600f088feaaf1100ae5e720
:020000040000fa
:020000041000ea
:102b48002de9f84f0446dde90a9a6668d4f80c8046
:102b580024690c9f013c1946002e4ff00003d7f85a
:102b680000b008f804301046b8bf01264d460123ce
:102b7800002c03dcdbb12046bde8f88f50ea0102e7
:102b880009d1a6eb09022a44002a04dc002df1dd54
:102b98001bf0020feed052464feaea7300f04affec
:102ba800013c1346303208f80420013de0e73b6859
:082bb80023f010033b60dee78f
:020000040000fa
:020000041000ea
:102bc000f8b5846a05460f46164654b1ab6a6a6981
:102bd0009b1ab3420bd2324639462846fff726feef
:102be000f8bd01f099f80028f0d02046f8e7002e53
:102bf000f1d095f93430002b1bdbdab233461c469a
:102c0000013bf95c914212d1224639462846fff732
:102c10000dfe8442e4d82744341b686922463946b5
:102c200001f06ef86b6923446b613046d8e7002be6
:062c3000e5d13446f1e796
:020000040000fa
:020000041000ea
:102c3600902910b50fdc7f2911dd803910290ed8b7
:102c4600dfe801f00f0f250d170d0d0d1e0d0d0df3
:102c56000d0d0d0d2500a02903d0c02901d000209f
:102c660006e019680c1d1c600b6803601a600120e1
:102c760010bd19680c1d1c600b6803601a80f6e70e
:102c860019680c1d1c600b6803601a70efe7196861
:102c96000c1d1c600b680360d117c3e90021e6e731
:020000040000fa
:020000041000ea
:022ca600fee747
:020000040000fa
:020000041000ea
:102ca80058b338b50c46054600f08cfc1cb3002020
:102cb800134a144904e00b7e2b540130844214d08b
:102cc800d2f8143213f0010ffad0d2f8143213f0fc
:102cd800e00f0bd1d2f8043213f4003febd00b8b8a
:102ce800c3f3080325f81030e7e72046844214bff1
:102cf8000020012038bd2046f8e70020704700bfbb
:082d08000040024000420240bd
:020000040000fa
:020000041000ea
:102d100010b582b0034600200190154800eb031067
:102d2000007b28b11348406ad84010f0010f1cd135
:102d3000104c04eb831cdcf85c00019001980c48fb
:102d400000eb031e01208ef80c001278ccf86c20ea
:102d500021f003010143ccf868100222ccf8502086
:102d600000fa03f3e36102b010bd0020fbe700bfef
:082d70000c3500210080094030
:020000040000fa
:020000041000ea
:102d780008b5164b1b680021186801f059f8144b68
:102d88001b680021186801f053f8fdf771fffff781
:102d9800c1f9fff767fa00f065fe4ff400430d4aea
:102da8005360a2f58072536500f0d0fa00f0f6fa8d
:102db80000f0dafd01f024f800f018fb00f0bafd8d
:102dc80000f03cfbfff774fd08bd00bfc4580021ac
:082dd800a8590021000310407e
:020000040000fa
:020000041000ea
:102de00030b583b0844600200190144800eb0c10ed
:102df000007b30b11248406a20fa0cf010f0010f4d
:102e00001ad10f4d05eb8c1edef85c000190019885
:102e10000a4c04eb0c1401202073cef86010cef89d
:102e2000642023f07f43cef87030bff35f8f00fa49
:102e30000cf3eb6103b030bd0020fbe70c35002143
:042e400000800940c5
:020000040000fa
:020000041000ea
:102e44007fb5c36800911646002b18bf013a019262
:102e540082680446cde9022300680d4602226946d1
:102e640000f02efe031e09dc626803f0180181f0f5
:102e740008010a436260184604b070bd0199994282
:102e84001846f9d2a268e2635b1a13442364e36828
:102e94000bb93046f0e7531ce3633544137805f867
:042ea400013cf6e710
:020000040000fa
:020000041000ea
:102ea80038b5154bd3f81442d3f8103214f0e002b9
:102eb80002d013f0e10f06d114f0010f15d114f070
:102ec800020f15d138bd0d4d2a6300f02ffb0023ea
:102ed80085f82c30084be122c3f80c226b6a002bd2
:102ee800ead0a86a6b6a9847e6e7fff709fae6e7c7
:102ef800fff778fbe6e700bf00c00140ac350021d2
:020000040000fa
:020000041000ea
:102f080038b5154bd3f81442d3f8103214f0e00258
:102f180002d013f0e10f06d114f0010f15d114f00f
:102f2800020f15d138bd0d4d2a6300f025fb002393
:102f380085f82c30084be122c3f80c226b6a002b71
:102f4800ead0a86a6b6a9847e6e7fff723fae6e74c
:102f5800fff790fbe6e700bf00000240e0350021e4
:020000040000fa
:020000041000ea
:102f680038b5154bd3f81442d3f8103214f0e002f8
:102f780002d013f0e10f06d114f0010f15d114f0af
:102f8800020f15d138bd0d4d2a6300f041fb002317
:102f980085f82c30084be122c3f80c226b6a002b11
:102fa800ead0a86a6b6a9847e6e7fff73dfae6e7d2
:102fb800fff7a8fbe6e700bf000001401436002138
:020000040000fa
:020000041000ea
:102fc80038b5154bd3f81442d3f8103214f0e00298
:102fd80002d013f0e10f06d114f0010f15d114f04f
:102fe800020f15d138bd0d4d2a6300f037fb0023c1
:102ff80085f82c30084be122c3f80c226b6a002bb1
:10300800ead0a86a6b6a9847e6e7fff757fae6e757
:10301800fff7c0fbe6e700bf00800140483600210b
:020000040000fa
:020000041000ea
:1030280070b5154bd3f8ac60d3f8a8301e40002417
:10303800124d02e00134032c1cd004eb440305ebd1
:10304800830015f82330dbb2816840680028f1d08e
:1030580003f01f0326fa03f313f0010fead004eb81
:10306800440305eb83035b6804eb440215f8220074
:103078009847dfe770bd00bf008000407c36002124
:020000040000fa
:020000041000ea
:1030880070b54609134ca35ddbb20136a45de4b20a
:10309800a3421dd2104c0f4d03eb430c14f82cc067
:1030a8005ffa8cfc84450ad015f806c05ffa8cfce0
:1030b80001335ffa83fef445eed8002007e00648a6
:1030c80003eb430400eb84046160a260012070bd3f
:0c30d8000020fce72c3700217c36002192
:020000040000fa
:020000041000ea
:1030e4000e4a38b5002313600d4a0e4c13600e4a85
:1030f4000e4d13600e4a13600e4a13600e4a53625b
:1031040013610123936000f09dfe00f002ffac42c6
:1031140000d338bd54f8043b9847f8e71c37002126
:103124006835002178010010643500217c0100100d
:0c3134005c350021603500216c35002165
:020000040000fa
:020000041000ea
:1031400038b50d46044608b9002038bd43689b06d3
:1031500007d5d0e905239a4216d80023c4e90533e0
:10316000a362d4e90f13994204d220680122c91a3c
:1031700000f0ccfe0023c4e90f33002de4d020681a
:10318000bde8384000f0b7be0022c36a1146984738
:0c3190006369002be1d14ff0ff30d6e75f
:020000040000fa
:020000041000ea
:10319c0037b5144d2b68044673b100f061fd0190f6
:1031ac0001a800f0eefd0f30019920f00f0000f0a7
:1031bc00d1fd58b100232b60012c38bf01240f34f2
:1031cc0034f00f0405d1084b0c221a60002003b018
:1031dc0030bd2046fff7f2fb0028f8d040f8044c35
:0c31ec00f5e700bf343700212037002138
:020000040000fa
:020000041000ea
:1031f80008b30b46014603b310b400eb030c104aa6
:10320800104c05e00b7823770230013161450ed070
:10321800d2f8143213f0020ffad0d2f8043213f4b1
:10322800003fefd00388c3f30803a383ece7012032
:103238005df8044b7047002070470120704700bfbd
:08324800004002400042024078
:020000040000fa
:020000041000ea
:103250002de9ff41134ed1f80080b788adf80c700e
:1032600005463068029002acb0798df80e00002a55
:1032700018bf1446d1e901671a461bb9204600f071
:1032800063fd0246002e02dbb24228bf3246cdf873
:1032900000803b4621462846fff718fc04b0bde8f5
:0832a000f08100bf583e001050
:020000040000fa
:020000041000ea
:1032a800f0b50c46d1e9011687b0236805930029cb
:1032b800a4bf23f00203059305abe76802930a2332
:1032c800cde900630546d2e900232046fff738fc24
:1032d8002269059b0093013a3346121a3918284689
:1032e800fff7f0fb6b68db0503d563689842b8bf4e
:0632f800184607b0f0bd0e
:020000040000fa
:020000041000ea
:0232fe00fee7e9
:020000040000fa
:020000041000ea
:1033000008b55e2804d05f2812d1fef7f7fc0fe065
:103310000849094800f000fc0849094800f0fcfb96
:103320000849094800f0f8fb0849094800f0f4fb97
:1033300008bd00bf60500021880200100048002135
:1033400098020010a03f0021a80200104037002181
:04335000b8020010af
:020000040000fa
:020000041000ea
:10335400104a012313604ff48673c2f8003200232d
:10336400c2f828324ff40c61c2f804120a49c2f8b8
:1033740020125021c2f80012084a9361d3611362eb
:1033840082f82c3053621363136053609360137597
:10339400d360704700c0014020000400ac35002118
:020000040000fa
:020000041000ea
:1033a400104a012313604ff48673c2f800320023dd
:1033b400c2f828324ff40c61c2f804120a49c2f868
:1033c40020125021c2f80012084a9361d36113629b
:1033d40082f82c3053621363136053609360137547
:1033e400d36070470000024020000400e035002153
:020000040000fa
:020000041000ea
:1033f400104a012313604ff48673c2f8003200238d
:10340400c2f828324ff40c61c2f804120a49c2f817
:1034140020125021c2f80012084a9361d36113624a
:1034240082f82c30536213631360536093601375f6
:10343400d3607047000001402000040014360021ce
:020000040000fa
:020000041000ea
:10344400104a012313604ff48673c2f8003200233c
:10345400c2f828324ff40c61c2f804120a49c2f8c7
:1034640020125021c2f80012084a9361d3611362fa
:1034740082f82c30536213631360536093601375a6
:10348400d3607047008001402000040048360021ca
:020000040000fa
:020000041000ea
:103494000144884220d22de91001104b002401225e
:1034a4001c60bff34f8fbff36f8f804698f8c0f056
:1034b40098ec200b1a60bff34f8fbff36f8f8046d9
:1034c40088ec200bbff34f8fbff36f8f803088429f
:1034d400e6d3bde810017047704700bf00041040f8
:020000040000fa
:020000041000ea
:1034e40013b5836a8df80710044673b16369a26a41
:1034f400934212d3e36a01220df107012046984753
:10350400012806d19df8070005e000f003fc00281f
:10351400ecd04ff0ff3002b010bd9df8070094f9d5
:0e35240034209042e6d05a1c62611870f3e722
:020000040000fa
:020000041000ea
:02353200fee7b2
:020000040000fa
:020000041000ea
:10353400104bd3f8143213f0e00f19d00d4b4ff4a5
:103544008072c3f80022d3f8143213f0010f0fd0a5
:10355400084b094905e00a7ed3f8142212f0010f42
:1035640006d0d3f8042212f4003ff4d00a8bf3e718
:0c357400704700bf00c0014000c20140d1
:020000040000fa
:020000041000ea
:10358000104bd3f8143213f0e00f19d00d4b4ff459
:103590008072c3f80022d3f8143213f0010f0fd059
:1035a000084b094905e00a7ed3f8142212f0010ff6
:1035b00006d0d3f8042212f4003ff4d00a8bf3e7cc
:0c35c000704700bf000002400002024003
:020000040000fa
:020000041000ea
:1035cc00104bd3f8143213f0e00f19d00d4b4ff40d
:1035dc008072c3f80022d3f8143213f0010f0fd00d
:1035ec00084b094905e00a7ed3f8142212f0010faa
:1035fc0006d0d3f8042212f4003ff4d00a8bf3e780
:0c360c00704700bf004002400042024036
:020000040000fa
:020000041000ea
:10361800104bd3f8143213f0e00f19d00d4b4ff4c0
:103628008072c3f80022d3f8143213f0010f0fd0c0
:10363800084b094905e00a7ed3f8142212f0010f5d
:1036480006d0d3f8042212f4003ff4d00a8bf3e733
:0c365800704700bf00000140000201406c
:020000040000fa
:020000041000ea
:10366400104bd3f8143213f0e00f19d00d4b4ff474
:103674008072c3f80022d3f8143213f0010f0fd074
:10368400084b094905e00a7ed3f8142212f0010f11
:1036940006d0d3f8042212f4003ff4d00a8bf3e7e7
:0c36a400704700bf008001400082014020
:020000040000fa
:020000041000ea
:1036b000022a70b5044616461d461bd043689b0679
:1036c00018d441b9002d08bf4ff4806505f10800fa
:1036d000fff764fd01466368012e43f02003636039
:1036e000c4e9021514bf4ff0ff330a2384f83430c5
:0c36f000014be362002070bdc12b0010f4
:020000040000fa
:020000041000ea
:1036fc0038b50f4d2b68044663b1002c12da0d4a15
:10370c002b6812689b1a6242934208db28680444b7
:10371c002c6006e000f074f92b68002bedd14ff013
:10372c00ff3038bd044b2a681b689b1aa342ece798
:0c373c00f0360021f8360021f4360021a0
:020000040000fa
:020000041000ea
:103748000278202a034600f10100f9d0a2f109010c
:103758000429f5d92b2a06d02d2a13d101210133aa
:10376800013b002006e00021f9e700bf00eb8000e4
:10377800c2eb400013f8012f303a092af6d901b9f3
:08378800404270470021ebe70d
:020000040000fa
:020000041000ea
:1037900008b5094800f0e8f9084800f0e5f90848dc
:1037a00000f0e2f9074a0849084800f02bfa0848f7
:1037b00000f0daf908bd00bfcc010010f8010010dc
:1037c000180200102c0200103802001044020010f1
:0437d0005c02001087
:020000040000fa
:020000041000ea
:1037d40010b5054c237833b9044b13b10448aff347
:1037e40000800123237010bdc436002100000000b6
:1037f4000000000008b5034b1bb103490348aff3b5
:10380400008008bd00000000c83600210000000050
:020000040000fa
:020000041000ea
:1038140010b44c68a40602460b4603d45df8044b6e
:1038240000f051b891f93410c0b2814203d0596903
:103834009c6aa14205d35df8044b11461846fff774
:0e3844004fbe4c1c5c610a705df8044b70476f
:020000040000fa
:020000041000ea
:1038520038b5436813f4807f0446154611d00369d6
:103862009a4228bf1d465db12a46406900f047fad8
:10387200636922692b44521b2261002263611a7020
:0c38820038bddb06fcd400f052faf9e778
:020000040000fa
:020000041000ea
:10388e00f0b5002503462e46954207d313f00302ea
:10389e0018bf0122181a02eb9000f0bd1c7834b14b
:1038ae0001f8014b01330135eee70e5501345f7817
:0c38be00a742fadc214425440233e5e770
:020000040000fa
:020000041000ea
:1038ca0007b54a680346dbb2d20508468df80730c9
:1038da0007d54a69511c41611370184603b05df857
:1038ea0004fb01220df1070100f01dfa10b19df849
:0a38fa000700f3e74ff0ff30f0e79e
:020000040000fa
:020000041000ea
:1039040030b50c4a0146002012f810301bb902eb06
:103914004002507830bd0c6825789d4209bf02eb07
:103924004003431c5878013414bfd8b20c600a28f1
:08393400ead9efe7783d00102d
:020000040000fa
:020000041000ea
:10393c000a4b01221a604ff48672c3f8002200224f
:10394c00c3f828224ff40c62c3f80422044ac3f8cb
:10395c0020225022c3f80022704700bf00400140d3
:04396c001000020045
:020000040000fa
:020000041000ea
:103970000a4b01221a604ff48672c3f8002200221b
:10398000c3f828224ff40c62c3f80422044ac3f897
:1039900020225022c3f80022704700bf004002409e
:0439a00020000400ff
:020000040000fa
:020000041000ea
:1039a40008b5084b1a7882f001021a701978064a91
:1039b400064b00290cbf11461946054800f020f9b2
:1039c40008bd00bf29370021d0020010c802001032
:0439d400d802001005
:020000040000fa
:020000041000ea
:1039d80038b50a480a4d016821b9436813b900f09f
:1039e80095fa38bd0389426855f8233000f10c0474
:1039f8002046984704eb8000ede700bf1808001048
:043a0800b83d0010b5
:020000040000fa
:020000041000ea
:103a0c00064b1a680ab9064a1a60064a116809b9bf
:103a1c00054911601a68054b1a607047f836002189
:103a2c00b0590021f4360021b05b0021f0360021a2
:020000040000fa
:020000041000ea
:103a3c0053b94ab9002908bf00281cbf4ff0ff3109
:103a4c004ff0ff3000f05ebaadf1080c6de904ce1a
:103a5c00fdf7e0fdddf804e0dde9022304b070477a
:020000040000fa
:020000041000ea
:103a6c004ff0804340f6ff71c3f840124ff007321d
:103a7c00c3f80022c3f84412c3f80422c3f8182276
:0e3a8c00c3f85812c3f85c12c3f81c2270472e
:020000040000fa
:020000041000ea
:103a9a00812903dc7f2903dc002070478329fbd1bd
:103aaa001368073323f0070303f108011160d3e910
:0a3aba000023c0e90023012070473b
:020000040000fa
:020000041000ea
:103ac4002de9f0410025804616460c462f46b742a4
:103ad40002db2846bde8f081626854f8081b4046c2
:0a3ae40000f0a0f801370544f1e7f7
:020000040000fa
:020000041000ea
:103aee002de9f0410025804616460c462f46b7427a
:103afe0002db2846bde8f081626854f8081b404698
:0a3b0e0000f0dbf801370544f1e791
:020000040000fa
:020000041000ea
:103b180000b583b0b1f840380193d1f84438009328
:103b280091f842380a780146024800f067f803b075
:083b38005df804fb940100108c
:020000040000fa
:020000041000ea
:103b40001f280ed810b50446202a09d8520005486f
:103b500000eb841000f0d4f80120a04000f098f9a8
:083b600010bd7047042800218c
:020000040000fa
:020000041000ea
:103b680010b5084c2368196800f06bf8002807dbcb
:103b780023680a20196800f0aff9c00f404210bd51
:083b88000120fbe7a859002110
:020000040000fa
:020000041000ea
:103b900090f948305a1e1343426880f8483012f0ba
:103ba000040317bf42f01002c0e90f3342604ff028
:083bb000ff3008bf1846704702
:020000040000fa
:020000041000ea
:103bb80070b502fb01f6144600290d46324601464f
:103bc800184608bf002400f0aff8864218bfb0fbc3
:063bd800f5f4204670bd6b
:020000040000fa
:020000041000ea
:023bde00fee700
:020000040000fa
:020000041000ea
:103be000064b03eb00131b7b33b1054b5b6a23fad7
:103bf00000f000f001007047002070470c350021f4
:043c000000800940f7
:020000040000fa
:020000041000ea
:103c04000fb407b5064b04aa1b6852f8041b1868c6
:103c1400019200f065f803b05df804eb04b070475e
:043c2400a85900217a
:020000040000fa
:020000041000ea
:103c280068b938b50c4642b1012529462046fff748
:103c380037f80028f9d0012038bd0020fce7002023
:023c48007047c3
:020000040000fa
:020000041000ea
:103c4a0070b50e46054600f07af833460446024639
:103c5a0001212846fff7abff001b18bf4ff0ff30ca
:023c6a0070bd2b
:020000040000fa
:020000041000ea
:103c6c0010b5054c23680bb9fff7cafe034b186857
:103c7c002368c01a10bd00bff0360021f4360021b5
:020000040000fa
:020000041000ea
:103c8c0010b50023934206d113f0030018bf012096
:0e3c9c0000eb930010bdc45ccc540133f2e782
:020000040000fa
:020000041000ea
:023caa00fee733
:020000040000fa
:020000041000ea
:103cac0001238340034a1362034b03eb00130022ee
:0c3cbc001a737047008009400c3500218d
:020000040000fa
:020000041000ea
:103cc80038b50d461446012801d0204638bd214696
:0c3cd8002846fff78dfa0028f9d0f6e727
:020000040000fa
:020000041000ea
:103ce40013b50446019201aafdf79cf9636813f029
:0c3cf400100f18bf4ff0ff3002b010bde1
:020000040000fa
:020000041000ea
:103d00004ab1431e84460a4411f8010b03f8010f1f
:083d10009142f9d160467047b1
:020000040000fa
:020000041000ea
:103d180010b50446fff738ff28b9a368e268c4e97c
:083d280005331344a36210bd32
:020000040000fa
:020000041000ea
:103d300010b4c46a1cb123465df8044b18470068f0
:083d40005df8044bfff7c0bf62
:020000040000fa
:020000041000ea
:103d480003783bb1034600bf13f8012f002afbd1cb
:083d5800181a70471846704765
:020000040000fa
:020000041000ea
:103d6000044a136823b910600361016001207047a1
:083d70000020704724370021f8
:020000040000fa
:020000041000ea
:103d780068076c094c836a9074a07ac000806888d0
:063d880000846c82008142
:020000040000fa
:020000041000ea
:103d8e000068002808b501da002008bdfff7affc77
:063d9e00431cfad1f8e716
:020000040000fa
:020000041000ea
:103da40008b5034b1b6813b1014a5068984708bd16
:043db400fc360021b8
:020000040000fa
:020000041000ea
:103db800f53d00108d3c0010fd3e0010fd3e00104a
:043dc8008f38001020
:020000040000fa
:020000041000ea
:103dcc0032b1c9b20244034603f8011b9a42fbd13b
:043ddc00704700bf6d
:020000040000fa
:020000041000ea
:103de00008b500f081f8024b1860586008bd00bfac
:043df0000437002173
:020000040000fa
:020000041000ea
:103df4000a440023914201d10020704701f8013b9d
:023e0400f8e7dd
:020000040000fa
:020000041000ea
:023e0600704703
:020000040000fa
:020000041000ea
:103e0800024b40f602021a60704700bf00c0034030
:020000040000fa
:020000041000ea
:103e180010b1024b18605960704700bffc36002192
:020000040000fa
:020000041000ea
:103e2800aaaabbbbccccdddd11112222333344441a
:020000040000fa
:020000041000ea
:103e3800b1fa81f252094ff480635200fff734bca3
:020000040000fa
:020000041000ea
:103e480008b5fff7c9ff00f063f800f061f808bd96
:020000040000fa
:020000041000ea
:0f3e5800286e756c6c2900286e696c2900250096
:020000040000fa
:020000041000ea
:0e3e6800a0f14103192b98bf40f020007047d5
:020000040000fa
:020000041000ea
:0e3e7600a0f16103192b98bf00f05f007047a8
:020000040000fa
:020000041000ea
:0c3e8400014bd8631964704700c0034074
:020000040000fa
:020000041000ea
:0c3e9000014bd864704700bf00c0034025
:020000040000fa
:020000041000ea
:0c3e9c00014b586c704700bf00c0034091
:020000040000fa
:020000041000ea
:0c3ea800014b5864704700bf00c003408d
:020000040000fa
:020000041000ea
:0c3eb400014bd86a704700bf00c00340fb
:020000040000fa
:020000041000ea
:0c3ec0008001014b195070472080004029
:020000040000fa
:020000041000ea
:0c3ecc008001014b1858704778800940b5
:020000040000fa
:020000041000ea
:083ed80008b5fdf78dfe08bde1
:020000040000fa
:020000041000ea
:083ee00008b5fff797fc08bdcf
:020000040000fa
:020000041000ea
:083ee800004870472c5900212d
:020000040000fa
:020000041000ea
:063ef0000068fff7e9bec7
:020000040000fa
:020000041000ea
:063ef6004ff0ff307047a1
:020000040000fa
:020000041000ea
:043efc0000207047eb
:020000040000fa
:020000041000ea
:043f000000207047e6
:020000040000fa
:020000041000ea
:043f040000207047e2
:020000040000fa
:020000041000ea
:043f080000207047de
:020000040000fa
:020000041000ea
:043f0c0000207047da
:020000040000fa
:020000041000ea
:043f1000704700bf37
:020000040000fa
:020000041000ea
:023f14007047f4
:020000040000fa
:020000041000ea
:023f16007047f2
:020000040000fa
:020000041000ea
:023f18007047f0
:020000040000fa
:020000041000ea
:023f1a007047ee
:00000001FF
