:020000040000fa
:020000041000ea
:10000000f0ff0b216911001087260010ef29001066
:100010003f3300101b3a00101f3b0010000000008f
:10002000000000000000000000000000f3170010b6
:100030000f31001000000000f3170010f31700103c
:10004000f3170010f3170010f3170010f317001048
:10005000f3170010f3170010f3170010d92d00103c
:10006000f3170010f3170010f3170010f317001028
:10007000592c0010392e0010b92c0010192d001029
:10008000f3170010f3170010f3170010f317001008
:10009000f3170010f3170010792d0010f31700105c
:1000a000f3170010f3170010f3170010f3170010e8
:1000b000f3170010f3170010f3170010f3170010d8
:1000c000f3170010f3170010f3170010f3170010c8
:1000d000f3170010f3170010f3170010f3170010b8
:1000e000f3170010f3170010f3170010f3170010a8
:1000f000f3170010f3170010f3170010f317001098
:1001000000000000f3170010f3170010f3170010a1
:10011000f3170010f3170010f3170010f317001077
:10012000f3170010f3170010f3170010f317001067
:10013000f3170010f3170010f3170010f317001057
:1001400095270010f31700100000000000000000c9
:10015000c53b0010f3170010f3170010f317001041
:0c016000f3170010f3170010f317001045
:020000040000fa
:020000041000ea
:10016c00f8b500bff8bc08bc9e4670479d36001021
:10017c00f8b500bff8bc08bc9e4670477936001035
:020000040000fa
:020000041000ea
:08018c00a412000001000000b4
:020000040000fa
:020000041000ea
:1001940025733a206865616465723d307825303294
:1001a40058206368616e6e656c3d257520727852c7
:1001b40065673d30782530386c58207461696c3d32
:1001c40025750d0a000000000d0a3d3d3d3d3d3df5
:1001d4003d3d3d3d3d3d3d3d3d3d3d3d3d3d3d3d4b
:1001e4003d3d3d3d3d3d3d3d3d3d3d3d3d3d3d3d3b
:1001f4003d3d0d00202053414d5248373120455696
:10020400204b697420697320506f77657265640da3
:1002140000000000202056657273696f6e3a20302a
:100224002e312e300d00000031383a33363a313257
:10023400000000004d617920203620323032360033
:1002440020204275696c6420446174653a202573ea
:100254002025730d0a0000003d3d3d3d3d3d3d3de3
:100264003d3d3d3d3d3d3d3d3d3d3d3d3d3d3d3dba
:100274003d3d3d3d3d3d3d3d3d3d3d3d3d3d3d3daa
:100284000d000000464c4558434f4d30446d614fbe
:10029400626a0000464c4558434f4d32446d614fed
:1002a400626a0000464c4558434f4d33446d614fdc
:1002b400626a0000464c4558434f4d34446d614fcb
:1002c400626a0000506175736564000052756e6e59
:1002d400696e670053797374656d2025730d0a0088
:1002e400495031353533205254204d6f64652049cf
:1002f4006e697469616c697a65642028416464720a
:100304006573733a202564290d0a0000495031357c
:100314003533205254204572726f723a203078255a
:1003240030386c580d0a000020202d204d656d6f6b
:100334007279205472616e73666572204572726fb1
:10034400720d000020202d205472616e7366657258
:10035400204572726f720d0020202d205472616e40
:100364007366657220436f64696e67204572726fad
:10037400720d000020202d205472616e7366657228
:1003840020506172697479204572726f720d000099
:1003940020202d205472616e736665722054696d3d
:1003a400656f7574204572726f720d004950313556
:1003b40035332052543a2044617461205265636598
:1003c400697665642028636f756e743a20256c75b0
:1003d400290d0a0020205258204275666665722055
:1003e4005374617475733a2030782530386c580d25
:1003f4000a0000004950313535332052543a204424
:100404006174612053656e742028636f756e743a4d
:1004140020256c75290d0a00495031353533205299
:10042400543a2053656c6620546573742052657188
:10043400756573742072656365697665640d000083
:100444004950313535332052543a205472616e7319
:100454006d69747465722053687574646f776e2067
:100464005265717565737420726563656976656438
:100474000d0000004950313535332052543a205292
:1004840065736574205254205265717565737420c8
:1004940072656365697665640d0000000d0a3d3d73
:1004a4003d20495031353533205254204d6f646519
:1004b4002054657374203d3d3d0d00005458206266
:1004c400756666657220534131206c6f61646564a2
:1004d4002077697468207465737420646174610d95
:1004e400000000005458206275666665722053410e
:1004f40032206c6f61646564207769746820746568
:10050400737420646174610d00000000525820620d
:10051400756666657273205341312c205341322035
:10052400726561647920746f2072656365697665ac
:100534000d0000000d0a5254206973207265616435
:10054400792e2057616974696e6720666f72204244
:100554004320636f6d6d616e64732e2e2e0d00004b
:10056400507265737320616e7920627574746f6e56
:1005740020746f20636865636b2073746174757392
:100584002e0d00003d3d3d3d3d3d3d3d3d3d3d3d50
:100594003d3d3d3d3d3d3d3d3d3d3d3d3d3d3d3d87
:1005a4003d3d3d3d3d0d000043697263756c6172d4
:1005b40020444d4120284c696e6b6564204c69735e
:1005c40074292073746172746564206f6e2063688b
:1005d400616e6e656c2025640d0a00002020427552
:1005e400666665723a2030782530386c582c205372
:1005f400697a653a2025640d0a0000004552524f7d
:10060400523a204661696c656420746f207374618a
:100614007274204c696e6b6564204c697374204459
:100624004d41206f6e206368616e6e656c20256499
:030634000d0a00ac
:020000040000fa
:020000041000ea
:10063800d42508211c000000000000000c26082119
:100648000800000000000000342608210100000016
:1006580000000000f0250821100000000000000044
:1006680038260821080000000100000000000003ef
:1006780003030303b0250821240000000000000044
:10068800b04808210200000001000000ffff000040
:1006980036260821010000000100000001000000ca
:1006a8001c2608210800000000000000352608214b
:1006b80001000000000000000410082100100000e4
:1006c80000000000ac240821040100000000000024
:1006d8000c24082150000000000000000000002148
:1006e80004100800000000004026082160080000ef
:1006f800040000000400ff00ff00ff00ff00ff00ef
:10070800ff00ff00ff004903000118020240001823
:10071800a02e082160080000040000000300ff006c
:10072800ff00ff00ff00ff00ff00ff00ff0049027d
:10073800000118c2014000180037082160080000b5
:10074800040000000200ff00ff00ff00ff00ff00a0
:10075800ff00ff00ff004901000118820140001856
:10076800603f0821600800000400000000ff00ff4f
:1007780000ff00ff00ff00ff00ff00ff004c180211
:100788000140001824260821040000000000000091
:100798005c2408215000000000000000c047082128
:1007a8006c00000001000000cc470821c847082160
:1007b800cc47082100000000250000000c2008217b
:1007c800000400000000000000000000000000001d
:1007d8000000000000000000000000000000000011
:1007e800000000001d3d0010000000000000000097
:1007f8000000000000000000f52b001000000000c1
:1008080000000000000000000000000000000000e0
:100818000000000004200821080400000000000077
:100828008c480821200000000100000001000000a1
:1008380003000000000000000000000000000000ad
:1008480000000000000000001426082114260821da
:100858000800000000000000282608210800000009
:10086800000000002c480821600000000100000082
:10087800010000000300000000000000000000006c
:10088800000000000000000000000000512f0010d0
:10089800000000000000000000000000053d0010fe
:1008a8002f3d0010000000000000000000000000c4
:1008b8000000000000000000000000000000000030
:1008c8000000000000000000000000000000000020
:1008d800ac480821040000000100000001000000ed
:1008e800302608210400000000000000002608212e
:1008f8000c00000000000000000000006c01000077
:1009080001000000f0ff0b2169110010872600107c
:10091800ef2900103f3300101b3a00101f3b001056
:1009280000000000000000000000000000000000bf
:10093800f31700100f31001000000000f31700102b
:10094800f3170010f3170010f3170010f317001037
:10095800f3170010f3170010f3170010f317001027
:10096800d92d0010f3170010f3170010f31700101b
:10097800f3170010592c0010392e0010b92c001054
:10098800192d0010f3170010f3170010f3170010bb
:10099800f3170010f3170010f3170010792d00104b
:1009a800f3170010f3170010f3170010f3170010d7
:1009b800f3170010f3170010f3170010f3170010c7
:1009c800f3170010f3170010f3170010f3170010b7
:1009d800f3170010f3170010f3170010f3170010a7
:1009e800f3170010f3170010f3170010f317001097
:1009f800f3170010f3170010f3170010f317001087
:100a0800f317001000000000f3170010f317001090
:100a1800f3170010f3170010f3170010f317001066
:100a2800f3170010f3170010f3170010f317001056
:100a3800f3170010f3170010f3170010f317001046
:100a4800f317001095270010f3170010000000009e
:100a580000000000c53b0010f3170010f31700104a
:100a6800f3170010f3170010f3170010f317001016
:100a7800000000000000000066666666666666663e
:020000040000fa
:020000041000ea
:100a880030b58d4b0022c3f88420bff34f8f5a69cd
:100a980022f480325a61bff34f8fd3f88030c3f30a
:100aa800c904c3f34e334fea431c43f6e07e824841
:100ab8000cea0e01234641ea8372c0f87422013b16
:100ac800b3f1ff3ff7d1acf1200c1cf1200fefd1af
:100ad800bff34f8fbff36f8fbff34f8fbff36f8f8e
:100ae800754b5a6922f400325a610022c3f8502229
:100af800bff34f8fbff36f8f704b4ff025421a61d2
:100b08006f4a116a6f4b0b431362936e13f4003fe5
:100b1800fbd04ff040236c4a5a60bff34f8fbff3ae
:100b28006f8f1a46936813f0010ffbd04ff04022e5
:100b3800d168664b1960d1685960d1689960d268ec
:100b4800da60bff34f8fbff36f8f5a689b689a4282
:100b580000f0ca805e4b1b78002b40f0ce805849cd
:100b68000b6a5c4a1a405c4b13430b620a46936e4d
:100b780013f4003ffbd0524a116a584b0b4043f420
:100b88005c131362936e13f0080ffbd04c4b524a60
:100b9800c3f8b02143f20302c3f88020504a9a6296
:100ba8001a46936e13f0020ffbd0454a136b23f0dd
:100bb80070031363936e13f0080ffbd0404a136b56
:100bc80043f480731363936e13f0080ffbd03c4a11
:100bd800136b23f0030343f002031363936e13f0c4
:100be800080ffbd0364b3f4ac3f80c210132c3f83b
:100bf8000c210232c3f80c210332c3f80c21013254
:100c0800c3f80c210132c3f80c210732c3f80c21b8
:100c18002a32c3f80c2102f1015202f20442c3f84d
:100c28000c21254b5b6913f4803f2bd1224b00220a
:100c3800c3f88420bff34f8fd3f88030c3f3c90eb5
:100c4800c3f34e334fea431c43f6e0741a480ceae8
:100c58000401734641ea8372c0f86022013bb3f194
:100c6800ff3ff7d1acf1200c1cf1200fefd1bff3ff
:100c78004f8f114a536943f480335361bff34f8f49
:100c8800bff36f8f0c4b5b6913f4003f13d1bff3b5
:100c98004f8fbff36f8f084b0022c3f85022bff36a
:100ca8004f8fbff36f8f5a6942f400325a61bff316
:100cb8004f8fbff36f8f30bd00ed00e00002104092
:100cc80000c00040080037000d00005af025082138
:100cd800342608218fffc8ff30003700ffffc8fe09
:100ce800017f092007100010484b9a68db689a4278
:100cf8007ff430af464b01221a7044494868800897
:100d080000f01c004c6804f003044b684a684fea82
:100d1800531e0ef01c0e02f003034eea030e4b683e
:100d28004a681b0a03f01c0302f003021a434b68cb
:100d380049684fead32c0cf01c0c01f003034cea71
:100d4800030c34490d6a344b2b4043f45c130b629b
:100d58008b6e13f4003ffbd0bff34f8fbff36f8f41
:100d68002c49d1f810512d4b2b43c1f81031d1f833
:100d7800b0512b4b2b43c1f8b031d1f810511306a9
:100d880043ea0e23274a2a40134343ea0c43c1f897
:100d98001031d1f8b021244b134043f45c13c1f84f
:100da800b031bff34f8fbff36f8f0b6a1a4a1a40e7
:100db8001e4b13430b620a46936e13f4003ffbd09d
:100dc800bff34f8fbff36f8f124bd3f8102142f050
:100dd8008002c3f81021d3f8b011114a0a43c3f8ae
:100de800b021d3f8102122f07f0222430243c3f836
:100df8001021d3f8b0110c4a0a4042f45c12c3f82f
:100e0800b021bff34f8fbff36f8fa8e6f0250821fd
:100e18003426082100c000408fffc8ff0080808072
:100e280000013700ff808080fffec8ff10003700f8
:020000040000fa
:020000041000ea
:100e38002de9f047aeb00746164605914ff0000879
:100e4800059d2b78002b00f0e08000244ff0ff3345
:100e5800cde909430eab0c9380230b940d932b5dc6
:100e68000bb1252b30d134b12946224638462544ca
:100e780002f03dfc0595059b1a78252a40f0bc80b8
:100e880003f10109cdf814904a46002113782b2b61
:100e9800104602f1010223d02ed8202b24d0232b78
:100ea80026d001b105902a2b2ed002f09bfb059a83
:100eb8000b900020114601320b78303b092b79d971
:100ec800002830d005912ee00134c8e7099b43f093
:100ed800010309930121d9e7099b43f00203f8e7cd
:100ee800099b43f00403f4e7099b43f00803f0e788
:100ef800099b43f01003ece72d2be7d0302bebd008
:100f08000029d2d00590d0e733681a1d1b683260db
:100f18000130002b05900b9305da099a5b4282f0a9
:100f2800010209920b93099bda0744bf23f00203dd
:100f38000993059b1a782e2a0fd14ff0000acdf895
:100f480028a05a785d1c2a2a059535d102330593c5
:100f580033681a1d1b6832600a9305a802f020fc4a
:100f6800059d0390287802f08bfe2528039900f050
:100f7800da806138172800f2e080172800f2dd8057
:100f8800dfe810f02b00db00b6004700a700a70041
:100f9800a700db004700db00db00db00db009e0076
:100fa80065008300db00db00c700db005600db00c8
:100fb800db00740001207de7284602f013fb53464e
:100fc8000a90294601350a78303a092a03d9002bb4
:100fd800c3d00591c1e70123f3e7324606a802f022
:100fe80076fc002872d06b1c059306aa2b7809a9f9
:100ff800384602f08dfe04444444a04540f3a780df
:10100800544b4f221a604ff0ff3840462eb0bde8cf
:10101800f0873346012206a800f06efd002855d05f
:10102800013506aa09a93846059500f0d5fee2e77c
:101038003346002206a800f05ffd002846d001359f
:1010480006aa09a93846059502f032f8d3e73346cf
:10105800002206a800f050fd002837d0013506aa66
:1010680009a93846059502f051fec4e73346002227
:1010780006a800f041fd48b36b1c05932b7806aa1f
:1010880009a9384600f020fbb5e733460022f021d5
:1010980006a800f031fdc8b1dde906320135134379
:1010a80005950bd12c4802f05bfd099b00932a495a
:1010b8000b9b0246384601f0a9fb9ce77823dee744
:1010c800334608eb040206a801f055fc01350595e6
:1010d80092e7324606a802f0fafb0028f6d06b1c0d
:1010e800059306aa2b7809a9384602f011fe82e773
:1010f8008029ebd1336801351a1d1b6832608df8e1
:1011080018300595012306aa09a9384601f0a4ff5d
:1011180071e78029dad13268131d3360013512680e
:1011280005950023f0e78029d0d1099b009301356c
:101138000b9b059509490122bce700234ff0ff32bc
:10114800cdf8149009930b930a920093f2e7a04606
:1011580076e600bf2c2608217f3c0010853c001055
:020000040000fa
:020000041000ea
:1011680008b5a84b9847a84b9847eff3108172b67b
:10117800a64ad2f8883043f47003c2f88830bff327
:101188004f8fbff36f8f01b962b6bff34f8fbff3b5
:101198006f8f9f4b00221a60bff34f8fbff36f8f83
:1011a8009a4b0122c3f89022c3f89422bff34f8fc1
:1011b800bff36f8f5b6913f4003f13d1bff34f8ff9
:1011c800bff36f8f914b0022c3f85022bff34f8fac
:1011d800bff36f8f5a6942f400325a61bff34f8fe1
:1011e800bff36f8f894b5b6913f4803f2bd1874b1b
:1011f8000022c3f88420bff34f8fd3f88030c3f3a5
:10120800c90ec3f34e334fea431c43f6e0747f48dc
:101218000cea0401734641ea8372c0f86022013b7c
:10122800b3f1ff3ff7d1acf1200c1cf1200fefd147
:10123800bff34f8f754a536943f480335361bff34b
:101248004f8fbff36f8f4ff40031002001f05cff28
:101258004ff480214ff0005001f056ffbff34f8f3d
:10126800bff36f8f694b5a6922f400325a6100222a
:10127800c3f85022bff34f8fbff36f8fc3f884209a
:10128800bff34f8f5a6922f480325a61bff34f8ff0
:10129800d3f88030c3f3c904c3f34e334fea431c79
:1012a80043f6e07e59480cea0e01234641ea837270
:1012b800c0f87422013bb3f1ff3ff7d1acf1200c29
:1012c8001cf1200fefd1bff34f8fbff36f8fbff328
:1012d8004f8fbff36f8f4e4b00221a604b4a072186
:1012e800c2f89012c2f89412bff34f8fbff36f8ffa
:1012f80001221a60bff34f8fbff36f8fbff34f8f79
:10130800bff36f8f4ff00453424a984698f8c0f0e5
:1013180098ec200bbff34f8fbff36f8f984688ec84
:10132800200bbff34f8fbff36f8f80339342ecd105
:10133800bff34f8fbff36f8fbff34f8fbff36f8f25
:10134800324c0723c4f89032c4f89432bff34f8f5d
:10135800bff36f8f02f05afa2f4b23f07f03a3607d
:101368002e4b9847636913f4003f12d1bff34f8f98
:10137800bff36f8f0022c4f85022bff34f8fbff323
:101388006f8f626942f400326261bff34f8fbff31f
:101398006f8f1e4b5b6913f4803f2bd11b4b0022d0
:1013a800c3f88420bff34f8fd3f88030c3f3c90e3e
:1013b800c3f34e334fea431c43f6e07413480cea78
:1013c8000401734641ea8372c0f86022013bb3f11d
:1013d800ff3ff7d1acf1200c1cf1200fefd1bff388
:1013e8004f8f0a4a536943f480335361bff34f8fd9
:1013f800bff36f8f0a4b98470a4b984700f0defb04
:10140800fee700bf273c0010273c001000ed00e07d
:101418000004104000000c2100000000f52e001010
:08142800273c0010273c0010d6
:020000040000fa
:020000041000ea
:101430002de9f04786468c460846089e15467446b8
:101440001946002b40f0c2808242b2fa82f245d99e
:101450004ab1c2f1200300fa02fc2efa03f39540d0
:1014600043ea0c0c94404fea154ea8b2bcfbfef8c0
:10147000230c0efb18cc08fb00f943ea0c439945fa
:1014800028d9eb1808f1ff3704d2994502d9a8f101
:1014900002072b44a3eb0903a4b2b3fbfefc0efb33
:1014a0001c330cfb00f044ea0344a04214d92c196d
:1014b0000cf1ff3304d2a04202d9acf102032c4458
:1014c000241a43ea07401eb1d440002334607360fd
:1014d000bde8f0874746dde76346f1e792bb431b73
:1014e00001214fea154eafb2b3fbfefc200c0efb00
:1014f0001c330cfb07f840ea0343984562d9eb180c
:101500000cf1ff3004d2984502d9acf102002b4413
:10151000a3eb0803a4b2b3fbfefc0efb1c330cfbd5
:1015200007f744ea0344a7424ed92c190cf1ff33c4
:1015300004d2a74202d9acf102032c44e41b43ead3
:101540000040c0e7c2f1200320fa03f1954090402b
:101550002efa03f303434fea154eafb2b1fbfefc84
:101560000efb1c10190c0cfb07f841ea00418845e2
:1015700004fa02f422d969180cf1ff3004d288452c
:1015800002d9acf102002944a1eb08019bb2b1fbe6
:10159000fefc0efb1c110cfb07f743ea01439f42c4
:1015a0000ed9eb180cf1ff3104d29f4202d9acf1f5
:1015b00002012b44db1b41ea004192e76046e3e76e
:1015c0006146f7e76046a3e76346b7e7834206d97b
:1015d00016b9002108467be7c6e900e0f9e7b3fa4f
:1015e00083f78fb9834201d3724508d8beeb02045a
:1015f00060eb030301209c461eb9002168e73846d2
:10160000fae7c6e9004cf8e7c7f1200cbb4022fa24
:101610000cf41c432efa0cf120fa0cf3b8400143f1
:101620004fea14490efa07f5b3fbf9f81ffa84fee6
:1016300009fb18300b0c08fb0efa43ea00439a45ed
:1016400002fa07f240d9e31808f1ff3004d29a45b4
:1016500002d9a8f102002344a3eb0a0389b2b3fb29
:10166000f9f809fb183308fb0efe41ea03418e45e9
:101670002cd9611808f1ff3304d28e4502d9a8f1a4
:101680000203214443ea0040a0fb0298a1eb0e01b3
:101690004145ce46434602d306d14d4504d2b9eb6f
:1016a000020e68eb04030138002ea6d0b5eb0e0243
:1016b00061eb030101fa0cfc22fa07f34cea030385
:1016c000f940c6e9003198e74046c5e74346d9e707
:020000040000fa
:020000041000ea
:1016d0002de9f04f8bb00d460493d1e901132f682b
:1016e000d5f80c9003900029a8bf27f00207924676
:1016f000b8bf012117f010020592dae9006232d07a
:1017000056ea02002fd0a3f1020b2c69029617f0c3
:10171000080004f1ff3418bf0bf1ff3b9046002294
:1017200009f8042006905a46012c1edc059a002a6e
:1017300051d1069a1ab1013c202209f804202a69e5
:1017400003980097013a121b09eb040101f062f8bb
:10175000039b5b68db0503d56b689842b8bf1846ee
:101760000bb0bde8f08f9b46cfe7029850ea080027
:1017700008d1a1eb0b001044002803dc002ad5ddc2
:10178000b807d3d50298049e00f00f000928a6f1ef
:10179000410cd4bf30305730bcf1190f04f1ff3485
:1017a0000ed840f0200cacf1610cbcf1190f07d839
:1017b000cde90813079202f06efadde90813079ae3
:1017c00009f804000298060946ea0870013a0290f6
:1017d0004fea1818a8e7dae900210a43a9d009eb73
:1017e0000402049902f8011c023c302209f804208a
:0217f0009fe771
:020000040000fa
:020000041000ea
:0217f200fee710
:020000040000fa
:020000041000ea
:1017f40038b53d4b5a881b889a426dd00424204644
:1018040002f00af90028fad1384b03f50122518875
:1018140001ebc11003eb400213f810505078d47858
:1018240001ebc11203eb42039a7842ea042214b298
:101834002f4b1b78ab4213d02e4b1b78ab424cd0b2
:101844002d4b1b78ab424ad02c4b1b78ab4205d0b6
:101854004b1cc3f30a03244a53803de0274900e0ac
:101864002349274ad2f8143213f0020ffad0244b3a
:10187400c3f81c521a46d2f8143213f0020ffad0ed
:101884001f4bc3f81c02c4f30a0303f140021144c2
:10189400c3f500639bb2984201d210b3034601f032
:1018a4001f041c44bff34f8f0a46164d0c44c5f861
:1018b40068222032a01a0028f9dcbff34f8fbff34f
:1018c4006f8f114a042001f061f928b1064a538848
:1018d4000133c3f30a03538038bd0649c1e70649ff
:1018e400bfe70346ede700bf001008210000002118
:1018f400603f082100370821a02e08214026082136
:0c1904000040024000ed00e01c420240e8
:020000040000fa
:020000041000ea
:1019100010b502f0dff9044690b143f6c2731842e5
:1019200010d114f0040f34d114f0080f40d114f486
:10193000803f46d114f4003f47d114f4001f48d132
:10194000204610bd0146254802f07af814f0020f37
:101950000fd114f0400f10d114f0800f11d114f4f6
:10196000807f12d114f4806fdbd01d4802f01af88a
:10197000d7e71c4802f016f8ebe71b4802f012f814
:10198000eae71a4802f00ef8e9e7194802f00af807
:10199000e8e7184b1a6801321a601968164802f015
:1019a0004ff802f08bf90146144802f049f8bbe702
:1019b000134b1a6801321a601968124802f040f895
:1019c000b5e7114801f0eeffb4e7104801f0eaff77
:1019d000b3e70f4801f0e6ffb2e700bf10030010c5
:1019e000940300102c030010480300105c03001047
:1019f0007803001020260821b0030010d80300103f
:101a00001c260821f80300101c04001044040010d8
:041a10007804001046
:020000040000fa
:020000041000ea
:101a140070b582b004460021a0f8401800f14005da
:101a24004ff40062284602f0dff805f01f02bff30e
:101a34004f8f2b462c4804f504611144c0f85c32e6
:101a44002033ca1a002af9dcbff34f8fbff36f8f1c
:101a540004f120012162a56200224ff40063a384f3
:101a640084f8262094f8273003f0fd0343f005039f
:101a740062f3c40384f8273001f01f02bff34f8fd1
:101a84000b46194e04f140001044c6f86832203366
:101a9400c21a002af9dcbff34f8fbff36f8f94f89b
:101aa4004228d4f844089201104b985094f82730f7
:101ab4008df8043001aa94f8420801f033f860b1bb
:101ac40094f842180a4801f0b9ff4ff4006229461d
:101ad400084801f0b3ff02b070bd94f842180648fc
:101ae40001f0acfff7e700bf00ed00e060800940c3
:0c1af400ac050010e0050010000600101a
:020000040000fa
:020000041000ea
:101b0000902910b50fdc7f2913dd8039102910d8fa
:101b1000dfe801f02b2b360f110f0f0f200f0f0fe7
:101b20000f0f0f0f3600c02944d0f02942d0a02952
:101b300021d000200de019682ab10a1d1a60b1f900
:101b40000030da1702e00c1d1c600b88c0e900327f
:101b5000012010bd196822b10a1d1a6091f90030e8
:101b6000efe70c1d1c600b78f0e71968f2b10a1d55
:101b70001a600b68e5e71a68111d19601368e0e741
:101b8000196852b1073121f0070101f108021a600a
:101b9000d1e90023c0e90023dae7ca1d22f00702d9
:101ba00002f108011960d2e90023f3e70c1d1c6063
:101bb0000b68cbe71a68111d1960136803600023d6
:041bc0004360c5e7d2
:020000040000fa
:020000041000ea
:101bc40080b5002000f046ff002224495d2001f08a
:101bd40061f9234c002221465e2001f05bf90022ca
:101be40021465f2001f056f94ff00051022002f027
:101bf40075f84ff08041022002f070f84ff0004178
:101c0400022002f06bf81748fff702ff1648fff7af
:101c1400fffe1648fff7fcfe1548fff7f9fe00f03b
:101c2400c7f9144a1378002bfcd101f001fd114cc3
:101c3400dff830800c4f0d4e0d4d2378002bfcd176
:101c4400404600f019f8384600f016f8304600f027
:101c540013f8284600f010f8efe700bfc12a00107f
:101c64008d330010603f082100370821a02e082181
:081c7400402608213626082154
:020000040000fa
:020000041000ea
:101c7c0038b5b0f840c890f842389b012749194450
:101c8c000b6f23f07f430a6f22f07f429342f7d110
:101c9c005b42c3f30a039c4536d8a3eb0c039bb2ff
:101cac00ff2b36d91e490b885a1cc2f30a024988ed
:101cbc00914230d005781b4903ebc31401eb440e61
:101ccc0001f8145000248ef801408ef802c04fea3f
:101cdc001c248ef803400cf5807cdcf10003ccf363
:101cec000a0cc3f30a0358bfc3f1000ca0f840c898
:101cfc0001f501210a80d0f84c380133c0f84c387a
:101d0c00fff772fd012038bdccf5006213449bb285
:101d1c00c6e70020f7e70020f5e700bf0080094088
:081d2c00001008210000002155
:020000040000fa
:020000041000ea
:101d340030b4244b244a1a6001205860234ac3f863
:101d44008020c3f884004ff06045c3f88050002120
:101d5400c3f884104ff00052c3f88020d3f88420d5
:101d640002f007021a4c2243c3f884204ff0804249
:101d7400c3f88020d3f8842002f007022243c3f87a
:101d840084204ff00042c3f88020d3f8842002f06e
:101d940007022243c3f88420c3f89450d3f8ac302c
:101da4000c4b4ff0c0421a6458640b4b5d221a70fe
:101db4005e221a735f221a7659601961d96130bca8
:101dc400704700bf00800040440018000306600014
:0c1dd4000004000100810040b02508213f
:020000040000fa
:020000041000ea
:101de0002de9f041d2e900230c4686b005465feab2
:101df000d378d1e901060968e76805913fd05242de
:101e000063eb4303002808db21f002010591b8f1e0
:101e1000000f02d10599480722d5711e05a802902e
:101e20000a20cde90010204600f032fdb8f1000f85
:101e30001ad001382d233b542269059b0093013aa7
:101e40003346121a3918284600f0e4fc6b68db05ab
:101e500003d563689842b8bf184606b0bde8f08164
:101e60000807dad43146d9e7059b590702d501386e
:101e70002b23e0e71a07dfd501382023dbe7002812
:041e8000c2dac7e714
:020000040000fa
:020000041000ea
:101e840010b400231e481a464fea031c00eb03114a
:101e940000f80c204a608a600a730133052bf3d1e1
:101ea400184b194a9a67712018650122da6014499f
:101eb4000a70164cc3f8b840c3f890000224dc60e2
:101ec4000a74134cc3f8f840c3f8d0000424dc604f
:101ed40081f820200f4cc3f83841c3f810010824be
:101ee400dc6081f830200c4cc3f87841c3f8500111
:101ef4001020d86081f840205df8044b704700bf83
:101f04000c2408210080094001400401014004051b
:0c1f140001400407014004091120010aeb
:020000040000fa
:020000041000ea
:101f2000214ad16821f4e0610904090c1f4b0b43dd
:101f3000d360bff35f8f62b61d4be02183f80713b8
:101f40008020186083f80c134ff48050186083f8d9
:101f50000d134ff40050186083f80e134ff48040b7
:101f6000186083f80f134ff40040186083f81613bd
:101f70004ff48000186083f840130120986083f8c4
:101f8000441310219960536a43f4802353625369c8
:101f90000b435361536a43f400335362536a43f46f
:101fa00080335362704700bf00ed00e00000fa0587
:041fb00000e100e06c
:020000040000fa
:020000041000ea
:101fb40010b584b01b4801f0f3fc1f2000f062fb55
:101fc400194b6c460fcb84e80f00082221460120f0
:101fd40001f0d2fc154801f0e3fc45f25553adf88d
:101fe400003046f26663adf8023008222146022032
:101ff40001f0c2fc0e4801f0d3fc022001f062fea5
:10200400042001f05ffe0b4801f0cafc0a4801f00d
:10201400c7fc0a4801f0c4fc094801f0c1fc04b043
:1020240010bd00bfa0040010483c0010c004001004
:10203400e8040010100500103805001064050010b5
:0420440088050010fb
:020000040000fa
:020000041000ea
:10204800f8b5214a136ad46992f82c20002a3ad0ac
:102058001e4ad2f8142212f0010f22d0a34220d235
:102068005a1c1a49184e1a4d0fe0b06995f818c055
:1020780000f803c0d1f8140202f1010c013310f08a
:10208800010f0fd0a2420dd26246d1f8040210f41b
:10209800003fead0288bb769c0f3080027f813007f
:1020a800e8e71a46084b1a6294420cd8002283f8d3
:1020b8002c20064ae121c2f80c125b6a1bb1024bc4
:1020c800986a5b6a9847f8bdac24082100c00140b3
:0420d80000c2014001
:020000040000fa
:020000041000ea
:1020dc00f8b5214a136ad46992f82c20002a3ad018
:1020ec001e4ad2f8142212f0010f22d0a34220d2a1
:1020fc005a1c1a49184e1a4d0fe0b06995f818c0c1
:10210c0000f803c0d1f8140202f1010c013310f0f5
:10211c00010f0fd0a2420dd26246d1f8040210f486
:10212c00003fead0288bb769c0f3080027f81300ea
:10213c00e8e71a46084b1a6294420cd8002283f83e
:10214c002c20064ae121c2f80c125b6a1bb1024b2f
:10215c00986a5b6a9847f8bde024082100000240a9
:04216c00000202402b
:020000040000fa
:020000041000ea
:10217000f8b5214a136ad46992f82c20002a3ad083
:102180001e4ad2f8142212f0010f22d0a34220d20c
:102190005a1c1a49184e1a4d0fe0b06995f818c02c
:1021a00000f803c0d1f8140202f1010c013310f061
:1021b000010f0fd0a2420dd26246d1f8040210f4f2
:1021c000003fead0288bb769c0f3080027f8130056
:1021d000e8e71a46084b1a6294420cd8002283f8aa
:1021e0002c20064ae121c2f80c125b6a1bb1024b9b
:1021f000986a5b6a9847f8bd1425082100400240a0
:042200000042024056
:020000040000fa
:020000041000ea
:10220400f8b5214a136ad46992f82c20002a3ad0ee
:102214001e4ad2f8142212f0010f22d0a34220d277
:102224005a1c1a49184e1a4d0fe0b06995f818c097
:1022340000f803c0d1f8140202f1010c013310f0cc
:10224400010f0fd0a2420dd26246d1f8040210f45d
:10225400003fead0288bb769c0f3080027f81300c1
:10226400e8e71a46084b1a6294420cd8002283f815
:102274002c20064ae121c2f80c125b6a1bb1024b06
:10228400986a5b6a9847f8bd482508210000014018
:042294000002014003
:020000040000fa
:020000041000ea
:10229800f8b5214a136ad46992f82c20002a3ad05a
:1022a8001e4ad2f8142212f0010f22d0a34220d2e3
:1022b8005a1c1a49184e1a4d0fe0b06995f818c003
:1022c80000f803c0d1f8140202f1010c013310f038
:1022d800010f0fd0a2420dd26246d1f8040210f4c9
:1022e800003fead0288bb769c0f3080027f813002d
:1022f800e8e71a46084b1a6294420cd8002283f881
:102308002c20064ae121c2f80c125b6a1bb1024b71
:10231800986a5b6a9847f8bd7c25082100800140cf
:0423280000820140ee
:020000040000fa
:020000041000ea
:10232c00204b1b7d002b3cd070b51e4a9368546823
:10233c001d4ad2f8142212f0020f20d0a3421ed252
:10234c005a1c1949174e194d0de03068c05c28779e
:10235c00d1f8140202f1010c013310f0020f0fd06e
:10236c0094420dd96246d1f8040210f4003fecd02f
:10237c00306830f81300c0f30800a883e8e71a4669
:10238c00084b9a6094420bd800221a75064a022117
:10239c00c2f80c12db681bb1024b1869db6898475a
:1023ac0070bd7047ac24082100c0014000c2014040
:020000040000fa
:020000041000ea
:1023bc00204b1b7d002b3cd070b51e4a9368546893
:1023cc001d4ad2f8142212f0020f20d0a3421ed2c2
:1023dc005a1c1949174e194d0de03068c05c28770e
:1023ec00d1f8140202f1010c013310f0020f0fd0de
:1023fc0094420dd96246d1f8040210f4003fecd09f
:10240c00306830f81300c0f30800a883e8e71a46d8
:10241c00084b9a6094420bd800221a75064a022186
:10242c00c2f80c12db681bb1024b1869db689847c9
:10243c0070bd7047e02408210000024000020240f9
:020000040000fa
:020000041000ea
:10244c00204b1b7d002b3cd070b51e4a9368546802
:10245c001d4ad2f8142212f0020f20d0a3421ed231
:10246c005a1c1949174e194d0de03068c05c28777d
:10247c00d1f8140202f1010c013310f0020f0fd04d
:10248c0094420dd96246d1f8040210f4003fecd00e
:10249c00306830f81300c0f30800a883e8e71a4648
:1024ac00084b9a6094420bd800221a75064a0221f6
:1024bc00c2f80c12db681bb1024b1869db68984739
:1024cc0070bd7047142508210040024000420240b4
:020000040000fa
:020000041000ea
:1024dc00204b1b7d002b3cd070b51e4a9368546872
:1024ec001d4ad2f8142212f0020f20d0a3421ed2a1
:1024fc005a1c1949174e194d0de03068c05c2877ed
:10250c00d1f8140202f1010c013310f0020f0fd0bc
:10251c0094420dd96246d1f8040210f4003fecd07d
:10252c00306830f81300c0f30800a883e8e71a46b7
:10253c00084b9a6094420bd800221a75064a022165
:10254c00c2f80c12db681bb1024b1869db689847a8
:10255c0070bd704748250821000001400002014071
:020000040000fa
:020000041000ea
:10256c00204b1b7d002b3cd070b51e4a93685468e1
:10257c001d4ad2f8142212f0020f20d0a3421ed210
:10258c005a1c1949174e194d0de03068c05c28775c
:10259c00d1f8140202f1010c013310f0020f0fd02c
:1025ac0094420dd96246d1f8040210f4003fecd0ed
:1025bc00306830f81300c0f30800a883e8e71a4627
:1025cc00084b9a6094420bd800221a75064a0221d5
:1025dc00c2f80c12db681bb1024b1869db68984718
:1025ec0070bd70477c2508210080014000820140ad
:020000040000fa
:020000041000ea
:1025fc002de9ff41836947690093ff1acde9017109
:10260c0004461646039217444ff002086d462068a4
:10261c004246294601f083f9b84209d1d4e9023285
:10262c00c4e905331a44a262304604b0bde8f08117
:10263c0000280dda6268002342f01002b8f1020f94
:10264c00c4e90533a362626015d06b68f61aebe738
:10265c006b68984288bf0835a7eb000788bfc01a83
:10266c002b6803442b606b68a3eb000388bf08f155
:0a267c00ff386b60cbe71e46d6e77f
:020000040000fa
:020000041000ea
:02268600fee76d
:020000040000fa
:020000041000ea
:10268800f8b50446184e4ff400652a460021304636
:1026980001f0a8fa154f2a460021384601f0a2fa9f
:1026a800630003f03e03124d2b603946304601f0bb
:1026b800f5fa4ff0ff3001f0f7fa4ff0ff3001f074
:1026c800fffa00210b4801f0b3fa4f232b620a4ba3
:1026d80001221a700023094a1360094a136021462f
:1026e800084801f0a9f9f8bd0418082104100821c8
:1026f80000c00340ed3c00103526082120260821a3
:082708001c260821e402001068
:020000040000fa
:020000041000ea
:10271000dff87cc0f0b5dcf800400346002c35d073
:102720000022214615461046d1f800e00e699e456c
:1027300009d12ab1166101f11000f0bd3146f3e76d
:10274000ccf80060f7e705d9e8b10768be453cbfa3
:10275000154608460a46002ef0d10028edd0014665
:10276000066951f8102bd21a102a05d903600b44c0
:10277000103a1e611a601e4684420cbfccf80060fd
:102780002e610846d9e715460846e3e72046d4e718
:0427900030260821c6
:020000040000fa
:020000041000ea
:1027940070b500241c4d1d4e08e01b4b03eb0413c5
:1027a4005b68022098470134052c2cd0220105ebec
:1027b4000413aa5c9968002af5d07369e34013f006
:1027c400010ff0d006eb8413db6d13f0700f08d00b
:1027d4000d4b03eb041300221a735b68002bdcd14e
:1027e400e1e713f0010fded0074b03eb04130022e3
:1027f4001a735b68002bd6d0034b03eb04135b689e
:1028040001209847cfe770bd0c24082100800940bf
:020000040000fa
:020000041000ea
:102814002de9ff471d460c9b13f0010806460f46a1
:10282400144601d195420bd822463946304600f071
:1028340060ffa54204d82546284604b0bde8f087c9
:10284400a5eb04094a46102a28bf10222021684615
:10285400ca4601f0c9f900bfbaf10f0f0ed809f04a
:102864000f026946304600f044ffb8f1000fe3d18f
:1028740022463946304600f03cffdde71022694627
:0c288400304600f036ffaaf1100ae5e72c
:020000040000fa
:020000041000ea
:102890002de9f84f0446dde90a9a6668d4f80c8001
:1028a00024690c9f013c1946002e4ff00003d7f815
:1028b00000b008f804301046b8bf01264d46012389
:1028c000002c03dcdbb12046bde8f88f50ea0102a2
:1028d00009d1a6eb09022a44002a04dc002df1dd0f
:1028e0001bf0020feed052464feaea7300f0c4ff2d
:1028f000013c1346303208f80420013de0e73b6814
:0829000023f010033b60dee749
:020000040000fa
:020000041000ea
:10290800f8b5846a05460f46164654b1ab6a6a693b
:102918009b1ab3420bd2324639462846fff76afe65
:10292800f8bd01f005f90028f0d02046f8e7002ea0
:10293800f1d095f93430002b1bdbdab233461c4654
:10294800013bf95c914212d1224639462846fff7ed
:1029580051fe8442e4d82744341b6869224639462c
:1029680001f0daf86b6923446b613046d8e7002b35
:06297800e5d13446f1e751
:020000040000fa
:020000041000ea
:10297e00902910b50fdc7f2911dd803910290ed872
:10298e00dfe801f00f0f250d170d0d0d1e0d0d0dae
:10299e000d0d0d0d2500a02903d0c02901d000205a
:1029ae0006e019680c1d1c600b6803601a6001209c
:1029be0010bd19680c1d1c600b6803601a80f6e7c9
:1029ce0019680c1d1c600b6803601a70efe719681c
:1029de000c1d1c600b680360d117c3e90021e6e7ec
:020000040000fa
:020000041000ea
:0229ee00fee702
:020000040000fa
:020000041000ea
:1029f00058b338b50c46054600f0a2fc1cb30020c5
:102a0000134a144904e00b7e2b540130844214d045
:102a1000d2f8143213f0010ffad0d2f8143213f0b6
:102a2000e00f0bd1d2f8043213f4003febd00b8b44
:102a3000c3f3080325f81030e7e72046844214bfab
:102a40000020012038bd2046f8e70020704700bf75
:082a500000400140004201407a
:020000040000fa
:020000041000ea
:102a580008b5164b1b680021186801f0f9f8144beb
:102a68001b680021186801f0f3f8fef709f8fff772
:102a78005df9fff703fa00f013ff4ff400430d4a26
:102a88005360a2f58072536500f066fb00f08cfb82
:102a980000f0b2fb01f0c4f800f0d6fb00f09cfe99
:102aa80000f0fafbfff738fa08bd00bfc447082159
:082ab800a848082100031040aa
:020000040000fa
:020000041000ea
:102ac00010b5124b1a7882f001021a701978104a68
:102ad000104b00290cbf114619460f4800f0b0fffb
:102ae0000424204600f09aff0028fad10b49bff3d6
:102af0004f8f0b4bc3f86812bff34f8fbff36f8f2d
:102b00000223084a042000f043f810bd36260821ad
:102b1000d0020010c8020010d8020010b0480821ee
:082b200000ed00e01c42024040
:020000040000fa
:020000041000ea
:102b280010b582b0034600200190154800eb031051
:102b3800007b28b11348406ad84010f0010f1cd11f
:102b4800104c04eb831cdcf85c00019001980c48e5
:102b580000eb031e01208ef80c001278ccf86c20d4
:102b680021f003010143ccf868100222ccf8502070
:102b780000fa03f3e36102b010bd0020fbe700bfd9
:082b88000c2408210080094023
:020000040000fa
:020000041000ea
:102b900030b583b0844600200190144800eb0c103f
:102ba000007b30b11248406a20fa0cf010f0010f9f
:102bb0001ad10f4d05eb8c1edef85c0001900198d8
:102bc0000a4c04eb0c1401202073cef86010cef8f0
:102bd000642023f07f43cef87030bff35f8f00fa9c
:102be0000cf3eb6103b030bd0020fbe70c2408219f
:042bf0000080094018
:020000040000fa
:020000041000ea
:102bf4007fb5c36800911646002b18bf013a0192b5
:102c040082680446cde9022300680d460222694623
:102c140000f074fe031e09dc626803f0180181f001
:102c240008010a436260184604b070bd01999942d4
:102c34001846f9d2a268e2635b1a13442364e3687a
:102c44000bb93046f0e7531ce3633544137805f8b9
:042c5400013cf6e762
:020000040000fa
:020000041000ea
:102c580070b5154bd3f8ac60d3f8a8301e400024eb
:102c6800124d02e00134032c1cd004eb440305eba5
:102c7800830015f82330dbb2816840680028f1d062
:102c880003f01f0326fa03f313f0010fead004eb55
:102c9800440305eb83035b6804eb440215f8220048
:102ca8009847dfe770bd00bf00800040b0250821cd
:020000040000fa
:020000041000ea
:102cb80038b5154bd3f81442d3f8103214f0e002ab
:102cc80002d013f0e10f06d114f0010f15d114f062
:102cd800020f15d138bd0d4d2a6300f079fb002392
:102ce80085f82c30084be122c3f80c226b6a002bc4
:102cf800ead0a86a6b6a9847e6e7fff7a1f9e6e722
:102d0800fff710fbe6e700bf00c00140ac24082134
:020000040000fa
:020000041000ea
:102d180038b5154bd3f81442d3f8103214f0e0024a
:102d280002d013f0e10f06d114f0010f15d114f001
:102d3800020f15d138bd0d4d2a6300f06ffb00233b
:102d480085f82c30084be122c3f80c226b6a002b63
:102d5800ead0a86a6b6a9847e6e7fff7bbf9e6e7a7
:102d6800fff728fbe6e700bf00000240e024082147
:020000040000fa
:020000041000ea
:102d780038b5154bd3f81442d3f8103214f0e002ea
:102d880002d013f0e10f06d114f0010f15d114f0a1
:102d9800020f15d138bd0d4d2a6300f065fb0023e5
:102da80085f82c30084be122c3f80c226b6a002b03
:102db800ead0a86a6b6a9847e6e7fff7d5f9e6e72d
:102dc800fff740fbe6e700bf00400240142508215a
:020000040000fa
:020000041000ea
:102dd80038b5154bd3f81442d3f8103214f0e0028a
:102de80002d013f0e10f06d114f0010f15d114f041
:102df800020f15d138bd0d4d2a6300f05bfb00238f
:102e080085f82c30084be122c3f80c226b6a002ba2
:102e1800ead0a86a6b6a9847e6e7fff7eff9e6e7b2
:102e2800fff758fbe6e700bf0000014048250821ee
:020000040000fa
:020000041000ea
:102e380038b5154bd3f81442d3f8103214f0e00229
:102e480002d013f0e10f06d114f0010f15d114f0e0
:102e5800020f15d138bd0d4d2a6300f051fb002338
:102e680085f82c30084be122c3f80c226b6a002b42
:102e7800ead0a86a6b6a9847e6e7fff709fae6e737
:102e8800fff770fbe6e700bf008001407c250821c2
:020000040000fa
:020000041000ea
:102e980070b54609134ca35ddbb20136a45de4b2fc
:102ea800a3421dd2104c0f4d03eb430c14f82cc059
:102eb8005ffa8cfc84450ad015f806c05ffa8cfcd2
:102ec80001335ffa83fef445eed8002007e0064898
:102ed80003eb430400eb84046160a260012070bd31
:0c2ee8000020fce738260821b025082156
:020000040000fa
:020000041000ea
:102ef4000e4a38b5002313600d4a0e4c13600e4a77
:102f04000e4d13600e4a13600e4a13600e4a53624c
:102f140013610123936000f0a5fe00f004ffac42ae
:102f240000d338bd54f8043b9847f8e72826082115
:102f34006824082178010010642408217c01001011
:0c2f44005c240821602408216c24082172
:020000040000fa
:020000041000ea
:102f500038b50d46044608b9002038bd43689b06c5
:102f600007d5d0e905239a4216d80023c4e90533d2
:102f7000a362d4e90f13994204d220680122c91a2e
:102f800000f0cefe0023c4e90f33002de4d020680a
:102f9000bde8384000f0b9be0022c36a1146984728
:0c2fa0006369002be1d14ff0ff30d6e751
:020000040000fa
:020000041000ea
:102fac0037b5144d2b68044673b100f077fd0190d2
:102fbc0001a800f0f6fd0f30019920f00f0000f091
:102fcc00d9fd58b100232b60012c38bf01240f34dc
:102fdc0034f00f0405d1084b0c221a60002003b00a
:102fec0030bd2046fff78efb0028f8d040f8044c8b
:0c2ffc00f5e700bfac4808212c26082196
:020000040000fa
:020000041000ea
:1030080008b30b46014603b310b400eb030c104a97
:10301800104c05e00b7823770230013161450ed062
:10302800d2f8143213f0020ffad0d2f8043213f4a3
:10303800003fefd00388c3f30803a383ece7012024
:103048005df8044b7047002070470120704700bfaf
:0830580000400140004201406c
:020000040000fa
:020000041000ea
:103060002de9ff41134ed1f80080b788adf80c7000
:1030700005463068029002acb0798df80e00002a47
:1030800018bf1446d1e901671a461bb9204600f063
:103090006bfd0246002e02dbb24228bf3246cdf85d
:1030a00000803b4621462846fff7b4fb04b0bde84c
:0830b000f08100bf783c001024
:020000040000fa
:020000041000ea
:1030b800f0b50c46d1e9011687b0236805930029bd
:1030c800a4bf23f00203059305abe76802930a2324
:1030d800cde900630546d2e900232046fff7d4fb7b
:1030e8002269059b0093013a3346121a391828467b
:1030f800fff78cfb6b68db0503d563689842b8bfa4
:06310800184607b0f0bdff
:020000040000fa
:020000041000ea
:02310e00fee7da
:020000040000fa
:020000041000ea
:103110000144884220d22de91001104b00240122e5
:103120001c60bff34f8fbff36f8f804698f8c0f0dd
:1031300098ec200b1a60bff34f8fbff36f8f804660
:1031400088ec200bbff34f8fbff36f8f8030884226
:10315000e6d3bde810017047704700bf000410407f
:020000040000fa
:020000041000ea
:10316000104a012313604ff48673c2f80032002323
:10317000c2f828324ff40c61c2f804120a49c2f8ae
:1031800020125021c2f80012084a9361d3611362e1
:1031900082f82c305362136313605360936013758d
:1031a000d360704700c0014020000400ac24082117
:020000040000fa
:020000041000ea
:1031b000104a012313604ff48673c2f800320023d3
:1031c000c2f828324ff40c61c2f804120a49c2f85e
:1031d00020125021c2f80012084a9361d361136291
:1031e00082f82c305362136313605360936013753d
:1031f000d36070470000024020000400e024082152
:020000040000fa
:020000041000ea
:10320000104a012313604ff48673c2f80032002382
:10321000c2f828324ff40c61c2f804120a49c2f80d
:1032200020125021c2f80012084a9361d361136240
:1032300082f82c30536213631360536093601375ec
:10324000d36070470040024020000400142508218c
:020000040000fa
:020000041000ea
:10325000104a012313604ff48673c2f80032002332
:10326000c2f828324ff40c61c2f804120a49c2f8bd
:1032700020125021c2f80012084a9361d3611362f0
:1032800082f82c305362136313605360936013759c
:10329000d360704700000140200004004825082149
:020000040000fa
:020000041000ea
:1032a000104a012313604ff48673c2f800320023e2
:1032b000c2f828324ff40c61c2f804120a49c2f86d
:1032c00020125021c2f80012084a9361d3611362a0
:1032d00082f82c305362136313605360936013754c
:1032e000d360704700800140200004007c25082145
:020000040000fa
:020000041000ea
:1032f00013b5836a8df80710044673b16369a26a37
:10330000934212d3e36a01220df107012046984748
:10331000012806d19df8070005e000f00dfc00280b
:10332000ecd04ff0ff3002b010bd9df8070094f9cb
:0e33300034209042e6d05a1c62611870f3e718
:020000040000fa
:020000041000ea
:02333e00fee7a8
:020000040000fa
:020000041000ea
:10334000104bd3f8143213f0e00f19d00d4b4ff49b
:103350008072c3f80022d3f8143213f0010f0fd09b
:10336000084b094905e00a7ed3f8142212f0010f38
:1033700006d0d3f8042212f4003ff4d00a8bf3e70e
:0c338000704700bf0040014000420140c7
:020000040000fa
:020000041000ea
:10338c005e2800d0704708b50849094800f0dcfaff
:10339c000849094800f0d8fa0849094800f0d4fa5d
:1033ac000849094800f0d0fa08bd00bf603f082169
:1033bc00880200100037082198020010a02e082166
:0c33cc00a802001040260821b8020010e2
:020000040000fa
:020000041000ea
:1033d800104bd3f8143213f0e00f19d00d4b4ff403
:1033e8008072c3f80022d3f8143213f0010f0fd003
:1033f800084b094905e00a7ed3f8142212f0010fa0
:1034080006d0d3f8042212f4003ff4d00a8bf3e775
:0c341800704700bf00c0014000c201402e
:020000040000fa
:020000041000ea
:10342400104bd3f8143213f0e00f19d00d4b4ff4b6
:103434008072c3f80022d3f8143213f0010f0fd0b6
:10344400084b094905e00a7ed3f8142212f0010f53
:1034540006d0d3f8042212f4003ff4d00a8bf3e729
:0c346400704700bf000002400002024060
:020000040000fa
:020000041000ea
:10347000104bd3f8143213f0e00f19d00d4b4ff46a
:103480008072c3f80022d3f8143213f0010f0fd06a
:10349000084b094905e00a7ed3f8142212f0010f07
:1034a00006d0d3f8042212f4003ff4d00a8bf3e7dd
:0c34b000704700bf004002400042024094
:020000040000fa
:020000041000ea
:1034bc00104bd3f8143213f0e00f19d00d4b4ff41e
:1034cc008072c3f80022d3f8143213f0010f0fd01e
:1034dc00084b094905e00a7ed3f8142212f0010fbb
:1034ec0006d0d3f8042212f4003ff4d00a8bf3e791
:0c34fc00704700bf0000014000020140ca
:020000040000fa
:020000041000ea
:10350800104bd3f8143213f0e00f19d00d4b4ff4d1
:103518008072c3f80022d3f8143213f0010f0fd0d1
:10352800084b094905e00a7ed3f8142212f0010f6e
:1035380006d0d3f8042212f4003ff4d00a8bf3e744
:0c354800704700bf00800140008201407d
:020000040000fa
:020000041000ea
:10355400022a70b5044616461d461bd043689b06d6
:1035640018d441b9002d08bf4ff4806505f1080057
:10357400fff71afd01466368012e43f020036360e0
:10358400c4e9021514bf4ff0ff330a2384f8343022
:0c359400014be362002070bd092900100b
:020000040000fa
:020000041000ea
:1035a00038b50f4d2b68044663b1002c12da0d4a72
:1035b0002b6812689b1a6242934208db2868044415
:1035c0002c6006e000f040f92b68002bedd14ff0a5
:1035d000ff3038bd044b2a681b689b1aa342ece7f6
:0c35e000002608210826082104260821e6
:020000040000fa
:020000041000ea
:1035ec000278202a034600f10100f9d0a2f109016a
:1035fc000429f5d92b2a06d02d2a13d10121013308
:10360c00013b002006e00021f9e700bf00eb800041
:10361c00c2eb400013f8012f303a092af6d901b950
:08362c00404270470021ebe76a
:020000040000fa
:020000041000ea
:1036340008b5094800f0b4f9084800f0b1f90848a1
:1036440000f0aef9074a0849084800f0f7f90848bd
:1036540000f0a6f908bd00bfcc010010f80100106d
:10366400180200102c02001038020010440200104e
:043674005c020010e4
:020000040000fa
:020000041000ea
:1036780010b5054c237833b9044b13b10448aff3a4
:1036880000800123237010bdd4250821000000000c
:103698000000000008b5034b1bb103490348aff312
:1036a800008008bd00000000d825082100000000a7
:020000040000fa
:020000041000ea
:1036b80010b44c68a40602460b4603d45df8044bcc
:1036c80000f051b891f93410c0b2814203d0596961
:1036d8009c6aa14205d35df8044b11461846fff7d2
:0e36e80003be4c1c5c610a705df8044b704719
:020000040000fa
:020000041000ea
:1036f60038b5436813f4807f0446154611d0036934
:103706009a4228bf1d465db12a46406900f005fa77
:10371600636922692b44521b2261002263611a707d
:0c37260038bddb06fcd400f010faf9e717
:020000040000fa
:020000041000ea
:10373200f0b5002503462e46954207d313f0030247
:1037420018bf0122181a02eb9000f0bd1c7834b1a8
:1037520001f8014b01330135eee70e5501345f7874
:0c376200a742fadc214425440233e5e7cd
:020000040000fa
:020000041000ea
:10376e0007b54a680346dbb2d20508468df8073026
:10377e0007d54a69511c41611370184603b05df8b4
:10378e0004fb01220df1070100f0dbf910b19df8e9
:0a379e000700f3e74ff0ff30f0e7fb
:020000040000fa
:020000041000ea
:1037a80030b50c4a0146002012f810301bb902eb64
:1037b8004002507830bd0c6825789d4209bf02eb65
:1037c8004003431c5878013414bfd8b20c600a284f
:0837d800ead9efe7983b00106d
:020000040000fa
:020000041000ea
:1037e0000a4b01221a604ff48672c3f800220022ad
:1037f000c3f828224ff40c62c3f80422044ac3f829
:1038000020225022c3f80022704700bf0040014030
:043810002000040090
:020000040000fa
:020000041000ea
:1038140038b50a480a4d016821b9436813b900f064
:1038240081fa38bd0389426855f8233000f10c044d
:103834002046984704eb8000ede700bf38060010ef
:04384400d83b00105d
:020000040000fa
:020000041000ea
:10384800064b1a680ab9064a1a60064a116809b985
:10385800054911601a68054b1a6070470826082147
:10386800b848082104260821b84a0821002608215a
:020000040000fa
:020000041000ea
:1038780053b94ab9002908bf00281cbf4ff0ff31cf
:103888004ff0ff3000f04abaadf1080c6de904cef4
:10389800fdf7cafdddf804e0dde9022304b0704756
:020000040000fa
:020000041000ea
:1038a8004ff0804340f6ff71c3f840124ff00732e3
:1038b800c3f80022c3f84412c3f80422c3f818223c
:0e38c800c3f85812c3f85c12c3f81c227047f4
:020000040000fa
:020000041000ea
:1038d600812903dc7f2903dc002070478329fbd183
:1038e6001368073323f0070303f108011160d3e9d6
:0a38f6000023c0e900230120704701
:020000040000fa
:020000041000ea
:103900002de9f0410025804616460c462f46b74269
:1039100002db2846bde8f081626854f8081b404687
:0a39200000f0a0f801370544f1e7bc
:020000040000fa
:020000041000ea
:10392a002de9f0410025804616460c462f46b7423f
:10393a0002db2846bde8f081626854f8081b40465d
:0a394a0000f0ccf801370544f1e766
:020000040000fa
:020000041000ea
:1039540000b583b0b1f840380193d1f844380093ee
:1039640091f842380a780146024800f067f803b03b
:083974005df804fb9401001052
:020000040000fa
:020000041000ea
:10397c001f280ed810b50446202a09d85200054835
:10398c0000eb841000f0c6f80120a04000f08af98a
:08399c0010bd7047041808215a
:020000040000fa
:020000041000ea
:1039a40010b5084c2368196800f06bf8002807db91
:1039b40023680a20196800f09bf9c00f404210bd2b
:0839c4000120fbe7a8480821df
:020000040000fa
:020000041000ea
:1039cc0090f948305a1e1343426880f8483012f080
:1039dc00040317bf42f01002c0e90f3342604ff0ee
:0839ec00ff3008bf18467047c8
:020000040000fa
:020000041000ea
:1039f40070b502fb01f6144600290d463246014615
:103a0400184608bf002400f0a1f8864218bfb0fb96
:063a1400f5f4204670bd30
:020000040000fa
:020000041000ea
:023a1a00fee7c5
:020000040000fa
:020000041000ea
:103a1c00064b03eb00131b7b33b1054b5b6a23fa9c
:103a2c0000f000f001007047002070470c240821c2
:043a3c0000800940bd
:020000040000fa
:020000041000ea
:103a40000fb407b5064b04aa1b6852f8041b18688c
:103a5000019200f056f803b05df804eb04b0704733
:043a6000a848082149
:020000040000fa
:020000041000ea
:103a640068b938b50c4642b1012529462046fef70f
:103a7400bdff0028f9d0012038bd0020fce700205c
:023a8400704789
:020000040000fa
:020000041000ea
:103a860070b50e46054600f06cf83346044602460d
:103a960001212846fff7abff001b18bf4ff0ff3090
:023aa60070bdf1
:020000040000fa
:020000041000ea
:103aa80010b5054c23680bb9fff7cafe034b18681d
:103ab8002368c01a10bd00bf00260821042608216b
:020000040000fa
:020000041000ea
:103ac80010b50023934206d113f0030018bf01205c
:0e3ad80000eb930010bdc45ccc540133f2e748
:020000040000fa
:020000041000ea
:103ae60038b50d461446012801d0204638bd21467a
:0c3af6002846fff786fa0028f9d0f6e712
:020000040000fa
:020000041000ea
:103b020013b50446019201aafdf795f9636813f013
:0c3b1200100f18bf4ff0ff3002b010bdc4
:020000040000fa
:020000041000ea
:023b1e00fee7c0
:020000040000fa
:020000041000ea
:103b20004ab1431e84460a4411f8010b03f8010f01
:083b30009142f9d16046704793
:020000040000fa
:020000041000ea
:103b380010b50446fff746ff28b9a368e268c4e950
:083b480005331344a36210bd14
:020000040000fa
:020000041000ea
:103b500010b4c46a1cb123465df8044b18470068d2
:083b60005df8044bfff7bfbf45
:020000040000fa
:020000041000ea
:103b680003783bb1034600bf13f8012f002afbd1ad
:083b7800181a70471846704747
:020000040000fa
:020000041000ea
:103b8000044a136823b91060036101600120704783
:083b90000020704730260821d7
:020000040000fa
:020000041000ea
:103b980068076c094c836a9074a07ac000806888b2
:063ba80000846c82008124
:020000040000fa
:020000041000ea
:103bae000068002808b501da002008bdfff7f1fc17
:063bbe00431cfad1f8e7f8
:020000040000fa
:020000041000ea
:103bc40008b5034b1b6813b1014a5068984708bdf8
:043bd4000c26082192
:020000040000fa
:020000041000ea
:103bd800153c0010c93a0010113d0010113d0010ad
:043be800333700105f
:020000040000fa
:020000041000ea
:103bec0032b1c9b20244034603f8011b9a42fbd11d
:043bfc00704700bf4f
:020000040000fa
:020000041000ea
:103c000008b500f07bf8024b1860586008bd00bf93
:043c1000142608214d
:020000040000fa
:020000041000ea
:103c14000a440023914201d10020704701f8013b7e
:023c2400f8e7bf
:020000040000fa
:020000041000ea
:023c26007047e5
:020000040000fa
:020000041000ea
:103c2800024b40f602021a60704700bf00c0034012
:020000040000fa
:020000041000ea
:103c380010b1024b18605960704700bf0c2608216c
:020000040000fa
:020000041000ea
:103c4800aaaabbbbccccdddd1111222233334444fc
:020000040000fa
:020000041000ea
:103c5800b1fa81f252094ff480635200fff776bc43
:020000040000fa
:020000041000ea
:103c680008b5fff7c9ff00f05df800f05bf808bd84
:020000040000fa
:020000041000ea
:0f3c7800286e756c6c2900286e696c2900250078
:020000040000fa
:020000041000ea
:0e3c8800a0f14103192b98bf40f020007047b7
:020000040000fa
:020000041000ea
:0e3c9600a0f16103192b98bf00f05f0070478a
:020000040000fa
:020000041000ea
:0c3ca400014bd8631964704700c0034056
:020000040000fa
:020000041000ea
:0c3cb000014bd864704700bf00c0034007
:020000040000fa
:020000041000ea
:0c3cbc00014b586c704700bf00c0034073
:020000040000fa
:020000041000ea
:0c3cc800014b5864704700bf00c003406f
:020000040000fa
:020000041000ea
:0c3cd400014bd86a704700bf00c00340dd
:020000040000fa
:020000041000ea
:0c3ce0008001014b19507047208000400b
:020000040000fa
:020000041000ea
:083cec0008b5fdf70ffe08bd4d
:020000040000fa
:020000041000ea
:083cf40008b5fff7dffc08bd75
:020000040000fa
:020000041000ea
:083cfc00004870472c48082124
:020000040000fa
:020000041000ea
:063d04000068fff7eebeaf
:020000040000fa
:020000041000ea
:063d0a004ff0ff3070478e
:020000040000fa
:020000041000ea
:043d100000207047d8
:020000040000fa
:020000041000ea
:043d140000207047d4
:020000040000fa
:020000041000ea
:043d180000207047d0
:020000040000fa
:020000041000ea
:043d1c0000207047cc
:020000040000fa
:020000041000ea
:043d200000207047c8
:020000040000fa
:020000041000ea
:043d2400704700bf25
:020000040000fa
:020000041000ea
:023d28007047e2
:020000040000fa
:020000041000ea
:023d2a007047e0
:020000040000fa
:020000041000ea
:023d2c007047de
:020000040000fa
:020000041000ea
:023d2e007047dc
:00000001FF
